:020000040000FA
:10000000B0140020D5000000F1000000F300000053
:1000100000000000000000000000000000000000E0
:1000200000000000000000000000000005010000CA
:1000300000000000000000000701000009010000AE
:100040000B0100000B0100000B0100000B01000080
:10005000291300000B0100000B0100000B01000040
:100060000B0100009D130000C50B00000B010000F8
:100070000B0100000B0100000B0100000B01000050
:100080000B0100000B0100000B0100000B01000040
:100090000B0100000B0100000B01000065100000C7
:1000A0000B0100000B010000ED0B00000B01000034
:1000B0000B0100000B0100000B0100000B01000010
:1000C0000348854601F0D6F900480047DD100000DE
:1000D000B01400201248134901601349016013490C
:1000E0000160134A13491160002101601248004762
:1000F000FEE706980188114A914202D10430069029
:100100007047FEE7FEE7FEE7FEE7FEE7ABBE01E075
:1001100000207047002A00D01060012070470000C6
:100120000001005059000000160000008800000087
:1001300024000050A55A0000C1000000ABBE000022
:1001400010B4924801681622C907002907D1592125
:1001500088230160026003600468E407F9D08C4BD7
:10016000032159608B490B68012423430B60CB6842
:10017000DB07FCD00A62012212048A61864A4A61C6
:100180000822CA6112224A62844A8A600023CB6232
:1001900002244C6021228A61CA685207FCD50C6196
:1001A000FF221A320A60036010BC704770B57D48A8
:1001B0007B4C84607C490160012292030521090780
:1001C0000A637A4A94600023DB43136000234B6385
:1001D000774AFF259560774D15603A228A63774A02
:1001E000754D9560764D1560FF223132CA637549B1
:1001F0008C60A022D2430A60654903224A60724A99
:100200000A614B6183614902C16141616F492B20E1
:1002100008600221042000F09AF86D49102008605F
:1002200070BD10B56C486B490162694A4115116097
:10023000016A8203114301620121092000F087F85D
:1002400010BD6549CA6ACB6A9B1A1B021B0A83420E
:10025000F9D3704710B5624C6048206001210A2034
:1002600000F075F801205A4980020860206889056D
:100270000843206010BD70B55A4C0022226303254C
:10028000E5600146584801F0DFF8584940186062BF
:100290005748A060FA202062656070BD00290BD02D
:1002A000504A93691B0205D403781360401C491E11
:1002B000F7D101E0002900D100207047F9214D4815
:1002C000090201604C4941604C4981604C490C2253
:1002D000CA6300220A604B4941624B498162704700
:1002E0004A4909200862704770B501204849C00793
:1002F000C8630E224A604749C863042048604648E4
:100300000168D201114301604449416045494448B4
:100310008860464A444850600020C0434862444BCD
:100320005862444C6062444D6862444E70620020E2
:1003300008620321116218622062286230621A206A
:1003400000F005F8012022498006086070BD83078F
:10035000FF22DB0E9A408907090E994000280BDA2C
:100360000007000F0838830835489B001818C36938
:1003700093430B43C3617047830832489B001818AE
:10038000036893430B430360704700000001005073
:100390004000005000020050502002005870211808
:1003A000FFFF000000400050FFFFFFF540400050FD
:1003B00080400050FFFF5555FFFB0000C04000503B
:1003C000FFFF17FF404100500018036080410050BC
:1003D00000E100E04700811C000001400800811C92
:1003E0000000114000000540001BB700FEFFFF2F7A
:1003F0003600030000000440333300000000098988
:1004000040000440DC050000BE05000000000E4076
:100410000000034000400340008F0050FF01FFFF39
:1004200020400340008000501040034000810050F5
:10043000008200500083005000840050008500506E
:1004400000ED00E000E400E0002904D0002202708A
:10045000401C491EFBD17047092800D20920FD49E4
:100460000B684A0393430B600023DB438B60CB682C
:10047000C000181848600868104308607047F648C4
:10048000808CC0070DD0F548F5490068F54A086032
:100490001368984201D9001F0860984201D9001FD3
:1004A00008607047F04810214162016A0122D202BF
:1004B00011430162016A0905FCD400697D2380B201
:1004C000DB00E849E64A984204D90968E7481C314C
:1004D000116038E0E64B984203D90968E5482431B9
:1004E00005E0E54B984204D90968E44834311160CD
:1004F00029E0E349884201D9E24824E0E249884200
:1005000001D9E2481FE0E249884201D9E1481AE0F6
:100510005721C900884201D9DF4814E0DF498842E9
:1005200002D9FF20C8300EE0FF21FF31884202D9F6
:10053000FF207D3007E0FF21A831884202D9FF204B
:10054000333000E00020A9214843000A704710B46E
:10055000D34A93680124A40223439360D14A1060D4
:10056000D1480160BF48BD49006808600021CF48FC
:10057000C9438162C16ACE4A89184162016A420355
:100580001143016210BC7047704770B50C460146BC
:10059000C3480069000514D5B048C64D006840291D
:1005A00010D2A9683F2212021143A96000884000BE
:1005B000A04203D20446323CFFF761FF2046FFF71A
:1005C0004BFF70BD80291BD20088A04203D2044695
:1005D000323CFFF754FFA8680721C9020843A8600E
:1005E0002046FFF739FFA8688004800EFBD1A86879
:1005F000072109020843A8602046FFF72DFF70BDC0
:100600000088610061184000814206D9032100F092
:100610001BFF0446323CFFF732FFA86803210903A1
:100620000843A8602046FFF717FFA8688004800EE3
:10063000FBD1A868032189020843A8602046FFF780
:100640000BFFA8688004800EFBD1A8680321090273
:100650000843A8602046FFF7FFFE70BDF7B58EB0D7
:1006600000200A909007800F10904807000F801C10
:100670000F908C4C000121681A30002904D02168A9
:10068000814208D2206006E085498A685205FCD480
:100690000021FFF75CFFFFF705FF6F49096A40186B
:1006A0000C908648844901602168891E09916C4933
:1006B0000A680B920A990E984018002108910C21A3
:1006C0008E46109900297AD00278012978D000212D
:1006D000102303248900150400D521435204120C71
:1006E0005B1EF7D1103089B210229B000D0400D59B
:1006F00023434904090C521EF7D171A7F0CF0822F9
:1007000094460195194600220397029600946D467F
:100710000C07240F2C5D0909A2186446641EA44628
:10072000F6D10899D2B25118089169494A68120164
:10073000FCD4624A13627146491E8E46C1D11068CC
:10074000C007FCD1574D296809988142FBD8614FF9
:1007500000207863574882683F2109028A438260FB
:100760003F490B98086008985B4E0206361D59CE2B
:1007700004900C99100F079606940593072800D94A
:100780000720420004A8805A0F9C4843060A012013
:100790007863002C0DD0A41E296809988142FBD8EB
:1007A00028683146801E09900898FFF7EEFE002C5D
:1007B000F1D10A98401C0A90102802D27AE70AE088
:1007C00017E027490B980860296809988142FBD8EF
:1007D000286811B0F0BD017810300A02017810309D
:1007E00011430A02017810301143037809020B43C8
:1007F00017E00021102303248900150400D52143AC
:100800005204120C5B1EF7D110300A040178102537
:100810009B000E0400D523434904090C6D1EF7D13B
:100820001343103069E7F7B58EB000200A90D00767
:10083000C00F10904807000F801C18210F90194C12
:10084000484321681A30002948D0216881424CD29F
:1008500020604AE0000011400000002074000020E9
:10086000780000202015000000000E40DD0400008C
:10087000D603000065040000B9030000ED0300008A
:100880008F0300007503000056030000FD02000006
:100890000D030000850200000D0200005B02000055
:1008A000C04000507C00002080000020000001407B
:1008B0008813000080400050041020000000034016
:1008C0000001010201020203010202030203030408
:1008D000400003400042005020450000A0498A68C3
:1008E0005205FCD40021FFF732FEFFF7DBFD9D49E6
:1008F000096A40180C909D499B4808602068801E3A
:1009000009909B4802680B920A9841000E980918BA
:100910000020089010208646109800280ED00A88E3
:100920000020102303248000150400D52043520426
:10093000120C5B1EF7D18446303105E008880A8E20
:1009400000030243944660318A4F0823F0CF00949D
:10095000604600220397029601956C4605072D0F0D
:10096000655D0009AA185B1EF8D1D0B2089A8018FC
:100970000890814842681201FCD47C4A60461062AB
:100980007046401E8646C7D11068C007FCD17B4D1B
:10099000296809988142FBD8794F0020786379480B
:1009A00082683F2109028A43826071490B9808607E
:1009B0000898754E0206361D59CE04900C99100FFA
:1009C000079606940593072800D90720420004A83B
:1009D000805A0F9C4843060A01207863002C0DD0F2
:1009E000A41E296809988142FBD828683146801ED8
:1009F00009900898FFF7C9FD002CF1D10A98401C16
:100A00000A90182880D35A490B98086029680998D9
:100A10008142FBD8286811B0F0BDF0B40B781022E9
:100A20001C063ED5A13B5E2253434978574A5918CC
:100A300049014B4B89189A6801246402A2439A60C9
:100A4000544A534C1460032414620D0C15620D0AB1
:100A5000156211620421916350494F4D0D60514D53
:100A60004F4E2E600F68022637430F602F683743C2
:100A70002F60A86048602020C860E8602E6880046D
:100A800006432E600D6805430D601068C007FCD159
:100A9000454901200860946398688005FCD5F0BC46
:100AA00070471901414BC9180B780370491C401C51
:100AB000521E1206120EF7D1F0BC704770B40B78BC
:100AC00018221C063FD5B03B5E2253434978602272
:100AD00059185143364A8918032212068B18204AA6
:100AE000916801246402A14391602A49314C0C6051
:100AF0001C0C0C620B6204238B63284B1C680226BF
:100B000034431C60274C2568354325602A4D1D6001
:100B10002A4D2560A06058606020D860E0602068A1
:100B20001D02284320601868284318600868C00721
:100B3000FCD11D4B0120186003208863906880055C
:100B4000FCD570BC704730214B431D4959180B88A8
:100B50000380891C801C521EF9D170BC70470000B4
:100B6000C040005000000020C410200000000340DE
:100B700078000020C0080000400003407C000020F6
:100B8000004200508040005020450000E0EBFFFF95
:100B900044102000004003408900080000800050FD
:100BA000250008000081005040400340E04500005F
:100BB000A0C304008410200089001000250010004C
:100BC00024150000074881683F221202914381608A
:100BD000054801684203914301600021C9438160D7
:100BE00070470000804000500000114005488168B7
:100BF000012252021143816000200349C043486230
:100C000070470000C04000500081005038B4E1201F
:100C10008000304A0090906891040843906005205D
:100C20000007C2680A43C260C2688A43C2602A4A97
:100C30001069491408431061284B0120186100987D
:100C4000411E00910028FAD1002191610820106214
:100C50000924A4019462106311204001906320488C
:100C6000482404601F4C8460882404611E4C846105
:100C7000C82404621D4C84620F2414601C4A14684A
:100C80002402240A45062C4314601A4C42042260B4
:100C90001961194A51600169184841601849016099
:100CA000016802221143016038BC704730B40C4B1C
:100CB0001A68144C1219104C6160491E05D305784E
:100CC0001570401C521C491EF9D26068586030BC37
:100CD00070470000000200500000064080000640FF
:100CE00040000640410200002202000043020000D2
:100CF00014E400E000E100E0280000200082005041
:100D0000250008000001064030B4134A9068134BD8
:100D1000134C02281BD0202811D11068002810D0B5
:100D2000002051684D1C556005190978401C297236
:100D3000402803D21168491E1160F2D1586230BCBC
:100D40007047002058625863906030BC7047A078AC
:100D5000986030BC704700009C10002000000640E6
:100D60000001064030B41C49002248788024072541
:100D70001A4B20281DD021280AD0222820D0D86A3A
:100D800002210843D862D86B0843D86330BC70474F
:100D90000A72C220487201208872CA720A734A73AA
:100DA00008208873986A204398625D625A6330BC59
:100DB00070475D63986A204398625A6230BC7047FE
:100DC000C8788978401806490880986A2043986254
:100DD0005A6230BC70470000000106400000064027
:100DE00028000020F0B4484C484DE179A079090270
:100DF00040182860464A906A802108439062002685
:100E0000AE60E078012805D0424B02280DD00328BF
:100E100034D12DE0404900200B780519491C401CB5
:100E20002B721228F8D9122042E02868432801D2F8
:100E3000286800E04320286038492F680020402FB0
:100E400008D3314C0F780419491C401C27724028E4
:100E5000F7D942E02B68834207D90B7807193B7218
:100E6000491C2B68401C8342F7D8506256633CE013
:100E7000A178002000290AD002291BD0D06A0221C3
:100E80000843D062D06B0843D063F0BC7047296838
:100E9000042901D2296800E00421296020490719AA
:100EA0000B783B72491C2B68401C9842F7D9286884
:100EB00050621AE02968202901D2296800E0202127
:100EC000296018492F68402F12D30F4C0F7804194E
:100ED000491C401C27724028F7D9402050626B60A3
:100EE0002868403828602020A8605663F0BC70470E
:100EF0002B688342DCD90B7807193B72491C2B689D
:100F0000401C8342F7D8D3E7000106409C10002024
:100F1000000006408A450000384500004A450000B0
:100F2000344500008D45000070B5164C0022A260CB
:100F3000154E022570781549802305280FD0062804
:100F40000AD009280DD00B2816D0C86A2843C862D9
:100F5000C86B2843C86370BDFFF744FF70BDA56030
:100F60000AE0B07820730A4842604024446109488E
:100F7000012504682C430460886A184388624A6229
:100F800070BD00009C1000200001064000000640DB
:100F9000400006401000002010B502212C4C002813
:100FA00015DA880760602B4860220078104008D06E
:100FB000202809D0E06A0843E062E06B0843E06360
:100FC00010BDFFF7B1FF10BDFFF7CCFE10BDC2038F
:100FD00004D5FFF799FE012000042FE0820307D516
:100FE0000120400460601C4881680021816010BDC0
:100FF000420305D501208004606000F067F910BD50
:1010000002030DD50120C00460601448016849083E
:101010004900016000F060F911494020486110BDAD
:10102000C20202D50120000508E0820202D501209B
:10103000400503E0420203D501208005606010BD39
:10104000000203D50120C005606010BD616010BDC5
:1010500000000640000106409C1000201000002007
:101060004000064010B51B494868820702D5FFF7CB
:1010700093FF10BDC2071CD0086942071020002A48
:101080000A6901DA024303E092070A6902D5824342
:101090000A6109E0D20707D00A6902430A61002009
:1010A00088600D4A107390604868012210434860C0
:1010B00010BD420707D548680422104348600F203E
:1010C000C001086110BD0007FCD548680822104324
:1010D000486010BD000006409C10002064A30FCBA8
:1010E00084B00393029201910090FFF729F8FFF773
:1010F000F7F8FFF796F8FFF7ADF8FFF787FDFFF772
:10110000DDF8E1204002FFF7B6F8FFF7EDF8FFF752
:101110004DF80B215AA0FFF7C1F8FF205B49F530CD
:1011200008605C495A4808605B4908605B480021D8
:1011300001605B485B4A0160916801231B0399438E
:1011400091605A4A5849116059495A4A09683C31D4
:10115000116059480069000507D505210907086B8A
:10116000012292031043086306E005200007016B8B
:10117000012292039143016349480078C00662D579
:10118000434D032109022846FFF75EF94B4C002628
:1011900020780A280ED021462846FFF73EFC20780A
:1011A000802802D2641C103501E0A41C2035761C76
:1011B000302EEDD3414C60783138C2B220783138CE
:1011C000C1B23348FFF74AFA60783038C2B22078AB
:1011D0003038C1B22E48FFF741FA2D4D07460321A2
:1011E00049022846FFF730F9002620780A280ED059
:1011F00021462846FFF762FC2078802802D2641C32
:10120000303501E0A41C6035761C202EEDD32C482F
:101210000168C91CB942FBD82848417800783039A8
:10122000CAB23038C1B21A48FFF7FDFA22488168C5
:101230004905FCD440212148FFF706F91849102040
:101240000A6882430A6069464878401CC0B2487008
:10125000392801D9302048701A480068002803D185
:1012600010216846FFF722FD1748FEF7EAFF70E7F6
:101270000A2020555342D0E9C4E2B4AEBFDA4F4B46
:101280000A5541525430204F4B20210020000020AD
:101290008C00002014000020180000201C000020FA
:1012A000100000200040005089050000840000204C
:1012B0002015000078000020C040005030000020C1
:1012C0007C0000202C000020A086010001490020A5
:1012D000086070472C00002070B40F4D00216B692E
:1012E00028690E4A2C688018A2185B1E0BD30C4E7E
:1012F000047874540478491C203C1470401C521C1F
:10130000C9B25B1EF4D268696860064810220168A1
:101310001143016070BC7047400006400001064068
:10132000300000201000002010B412A001461EC999
:1013300087B0029303940192009142690169806928
:10134000134B059204910690186900040CD41149BE
:1013500000206A46145C0C54401C1C28FAD30E482A
:1013600010220168114301600020C043186207B0D9
:1013700010BC70473131D0BECCC6B5E7D7D3BFC69D
:10138000BCBCC9CFBAA3D3D0CFDEB9ABCBBE0000B3
:1013900000400050300000201000002070B5234AAB
:1013A000D068234C00282ED010461169006800290F
:1013B00006D0001F1F491060884208D2103005E097
:1013C000001D1D491060884201D9103810601B496A
:1013D00000688860616A50680388C9186162D368D0
:1013E0005B1ED36016490968411A8D10011FAB427C
:1013F00007D99368984202D2001D50600EE09842CF
:101400000CD951600AE0206A012149078843206213
:101410000C48816801239B0299438160516990695E
:1014200088470020C043A06270BD0000700000200B
:1014300000000140B0450000BC45000040410050A4
:1014400020150000C040005030B50B46014600207A
:101450002022012409E00D46D5409D4205D31D46BA
:101460009540491B2546954040191546521E002DB2
:10147000F1DC30BD064C0125064E05E02046E36850
:1014800007C82B4398471034B442F7D3FEF71CFE2D
:10149000C0450000E045000002E008C8121F08C176
:1014A000002AFAD170477047002001E001C1121FE5
:1014B000002AFBD170470B13F101C50B7E01170900
:1014C0005701A1073D01B006290105061901840550
:1014D0000C011E050101CB04F7008604EE004B044D
:1014E000E6001804DF00EC03D900C403D300A10315
:1014F000CD008203C8006503C3004B03BF00330364
:10150000BA001D03B6000903B200F602AF00E502FF
:10151000AB00D502A800C502A500B602A1000000DC
:10152000B6140000000000000000000000000000F1
:1015300000000000000000000000000000000000AB
:10154000000000000000000000000000000000009B
:1015500000000000000000000000300030007000BB
:10156000F000F00130033002300030003000300075
:1015700030003000300030003000300030003000EB
:1015800000000000000000000000F000FC010C035F
:1015900006070606060606000E000C001C003800B2
:1015A00070006000E000C00180030003FE07FE073A
:1015B00000000000000000000000F000F8031C0321
:1015C0000C060C060C000C00180070007C000C00CF
:1015D00006000600060006060E061C03F803F000CF
:1015E000000000000000000000000C001C001C00B7
:1015F0003C006C006C00CC00CC008C018C030C0314
:101600000C06FF07FF070C000C000C000C000C0080
:1016100000000000000000000000FC01FC0180034D
:10162000000300030003F003F8071C070E06060082
:1016300006000600060006060C061C03F803F00070
:1016400000000000000000000000F800FC018C0316
:1016500006030602000600067006FC070C070E07CC
:1016600006060606060606060E038C03F801F000C1
:1016700000000000000000000000FE07FE0706005A
:101680000C0018001800300030006000600060009E
:10169000C000C000C000C000800180018001800146
:1016A00000000000000000000000F000F8019C03B2
:1016B0000C030C030C030C039801F000F8010C035D
:1016C000060606060606060606060C03FC03F000E0
:1016D00000000000000000000000F000F8018C0392
:1016E0000C0706060606060606060E070E03FE0390
:1016F000E600060006000C060C061C03F803E001D9
:101700000000000000000000000000000000E000F9
:10171000E000B001B001B001B803180318031803CA
:10172000FC07FC070C060C06060C060C000000006B
:101730000000000000000000000000000000F007B2
:10174000F8071C060C060C061806F007F8071C061E
:101750000C060C060C061C06F807F007000000003B
:101760000000000000000000000000000000F00089
:10177000FC018C030E0306060006000600060006A8
:10178000060606060C039C03F801F00000000000AA
:101790000000000000000000000000000000F00752
:1017A000F8071C060C0606060606060606060606CA
:1017B000060606060C061C06F807F00700000000E7
:1017C0000000000000000000000000000000FC0716
:1017D000FC070006000600060006FC07FC070006E2
:1017E0000006000600060006FC07FC0700000000DB
:1017F0000000000000000000000000000000FC07E6
:10180000FC070006000600060006F807F8070006B9
:1018100000060006000600060006000600000000A4
:1018200000000000000000000000000000000000B8
:1018300000000000000000000000000000000000A8
:101840000000000000000000000000000000000098
:101850000000000000000000000000000000000088
:101E200000000000000000000000F000F8019C032A
:101E30000E07060606060606060606060606060639
:101E400006060606060606060E079C03F801F000C5
:101E500000000000000000000000300030007000B2
:101E6000F000F0013003300230003000300030006C
:101E700030003000300030003000300030003000E2
:101E800000000000000000000000F000FC010C0356
:101E900006070606060606000E000C001C003800A9
:101EA00070006000E000C00180030003FE07FE0731
:101EB00000000000000000000000F000F8031C0318
:101EC0000C060C060C000C00180070007C000C00C6
:101ED00006000600060006060E061C03F803F000C6
:101EE000000000000000000000000C001C001C00AE
:101EF0003C006C006C00CC00CC008C018C030C030B
:101F00000C06FF07FF070C000C000C000C000C0077
:101F100000000000000000000000FC01FC01800344
:101F2000000300030003F003F8071C070E06060079
:101F300006000600060006060C061C03F803F00067
:101F400000000000000000000000F800FC018C030D
:101F500006030602000600067006FC070C070E07C3
:101F600006060606060606060E038C03F801F000B8
:101F700000000000000000000000FE07FE07060051
:101F80000C00180018003000300060006000600095
:101F9000C000C000C000C00080018001800180013D
:101FA00000000000000000000000F000F8019C03A9
:101FB0000C030C030C030C039801F000F8010C0354
:101FC000060606060606060606060C03FC03F000D7
:101FD00000000000000000000000F000F8018C0389
:101FE0000C0706060606060606060E070E03FE0387
:101FF000E600060006000C060C061C03F803E001D0
:1020000000000000000000000000000000000000D0
:1020100000000000000000000000000000000000C0
:1020200000000000000000000000000000000000B0
:1020300000000000000000000000000000000000A0
:102040000000000000000000000000000000000090
:102050000000000000000000000000000000000080
:102060000000000000000000000000000000000070
:102070000000000000000000000000000000000060
:102080000000000000000000000000000000000050
:102090000000000000000000000000000000000040
:1020A0000000000000000000000000000000000030
:1020B0000000000000000000000000000000000020
:1020C0000000000000000000000000000000000010
:1020D0000000000000000000000000000000000000
:1020E00000000000000000000000000000000000F0
:1020F00000000000000000000000000000000000E0
:1021000000000000000000000000000000000000CF
:1021100000000000000000000000000000000000BF
:1021200000000000000000000000000000000000AF
:10213000000000000000000000000000000000009F
:10214000000000000000000000000000000000008F
:102150000000000000000000000000000000E0009F
:10216000E000B001B001B001B80318031803180370
:10217000FC07FC070C060C06060C060C0000000011
:102180000000000000000000000000000000F00758
:10219000F8071C060C060C061806F007F8071C06C4
:1021A0000C060C060C061C06F807F00700000000E1
:1021B0000000000000000000000000000000F0002F
:1021C000FC018C030E03060600060006000600064E
:1021D000060606060C039C03F801F0000000000050
:1021E0000000000000000000000000000000F007F8
:1021F000F8071C060C060606060606060606060670
:10220000060606060C061C06F807F007000000008C
:102210000000000000000000000000000000FC07BB
:10222000FC070006000600060006FC07FC07000687
:102230000006000600060006FC07FC070000000080
:102240000000000000000000000000000000FC078B
:10225000FC070006000600060006F807F80700065F
:10226000000600060006000600060006000000004A
:10227000000000000000000000000000000000005E
:10228000000000000000000000000000000000004E
:10229000000000000000000000000000000000003E
:1022A000000000000000000000000000000000002E
:1045200000000000EC00F60000010D011A01260158
:104530003301430104030904120100020200004098
:104540001604115000030102000109024300020198
:1045500000C032090400000102020101052400101C
:1045600001052401000104240200052406000107BE
:1045700005830340000109040100020A000001074D
:10458000058102400000070502024000002003559B
:10459000005300420020005600690072007400754C
:1045A0000061006C00200043004F004D000000003F
:1045B0000C000000040000000000000008000000E3
:1045C000E04D0000000000208C0000009814000066
:1045D0006C4E00008C00002024140000A814000081
:1045E00000000000000000000000000000000000CB
:1045F00000007E81A58181BD9981817E000000003F
:1046000000007EFFDBFFFFC3E7FFFF7E000000002E
:10461000000000006CFEFEFEFE7C38100000000072
:104620000000000010387CFE7C3810000000000004
:10463000000000183C3CE7E7E718183C00000000C9
:10464000000000183C7EFFFF7E18183C00000000B0
:10465000000000000000183C3C18000000000000B2
:10466000FFFFFFFFFFFFE7C3C3E7FFFFFFFFFFFF02
:1046700000000000003C664242663C000000000072
:10468000FFFFFFFFFFC399BDBD99C3FFFFFFFFFF02
:1046900000001E0E1A3278CCCCCCCC780000000082
:1046A00000003C666666663C187E18180000000034
:1046B00000003F333F3030303070F0E00000000049
:1046C00000007F637F6363636367E7E6C000000009
:1046D0000000001818DB3CE73CDB18180000000065
:1046E0000080C0E0F0F8FEF8F0E0C08000000000BC
:1046F0000002060E1E3EFE3E1E0E060200000000D8
:104700000000183C7E1818187E3C180000000000BD
:104710000000666666666666660066660000000003
:1047200000007FDBDBDB7B1B1B1B1B1B0000000077
:10473000007CC660386CC6C66C380CC67C000000B5
:104740000000000000000000FEFEFEFE0000000071
:104750000000183C7E1818187E3C187E00000000EF
:104760000000183C7E1818181818181800000000CF
:104770000000181818181818187E3C1800000000BF
:104780000000000000180CFE0C18000000000000E3
:1047900000000000003060FE6030000000000000FB
:1047A000000000000000C0C0C0FE000000000000CB
:1047B0000000000000286CFE6C28000000000000D3
:1047C000000000001038387C7CFEFE000000000075
:1047D00000000000FEFE7C7C383810000000000065
:1047E00000000000000000000000000000000000C9
:1047F0000000183C3C3C1818180018180000000075
:104800000066666624000000000000000000000052
:104810000000006C6CFE6C6C6CFE6C6C00000000A8
:1048200018187CC6C2C07C060686C67C1818000014
:1048300000000000C2C60C183060C68600000000F0
:104840000000386C6C3876DCCCCCCC7600000000F4
:104850000030303060000000000000000000000068
:1048600000000C18303030303030180C00000000E0
:10487000000030180C0C0C0C0C0C18300000000060
:104880000000000000663CFF3C66000000000000E5
:10489000000000000018187E18180000000000003A
:1048A0000000000000000000001818183000000090
:1048B00000000000000000FE0000000000000000FA
:1048C00000000000000000000000181800000000B8
:1048D0000000000002060C183060C08000000000DC
:1048E0000000386CC6C6D6D6C6C66C3800000000BC
:1048F00000001838781818181818187E00000000E2
:1049000000007CC6060C183060C0C6FE0000000027
:1049100000007CC606063C060606C67C00000000B9
:1049200000000C1C3C6CCCFE0C0C0C1E00000000AB
:104930000000FEC0C0C0FC060606C67C00000000E9
:1049400000003860C0C0FCC6C6C6C67C00000000BF
:104950000000FEC606060C183030303000000000A3
:1049600000007CC6C6C67CC6C6C6C67C0000000069
:1049700000007CC6C6C67E0606060C780000000055
:1049800000000000181800000018180000000000C7
:104990000000000018180000001818300000000087
:1049A000000000060C18306030180C0600000000F3
:1049B00000000000007E00007E00000000000000FB
:1049C0000000006030180C060C1830600000000079
:1049D00000007CC6C60C181818001818000000004B
:1049E0000000007CC6C6DEDEDEDCC07C000000000D
:1049F000000010386CC6C6FEC6C6C6C60000000061
:104A00000000FC6666667C66666666FC0000000068
:104A100000003C66C2C0C0C0C0C2663C00000000CE
:104A20000000F86C6666666666666CF8000000005A
:104A30000000FE6662687868606266FE0000000042
:104A40000000FE6662687868606060F00000000048
:104A500000003C66C2C0C0DEC6C6663A0000000068
:104A60000000C6C6C6C6FEC6C6C6C6C60000000052
:104A700000003C18181818181818183C00000000FE
:104A800000001E0C0C0C0C0CCCCCCC7800000000F0
:104A90000000E666666C78786C6666E600000000EA
:104AA0000000F06060606060606266FE0000000010
:104AB0000000C6EEFEFED6C6C6C6C6C60000000092
:104AC0000000C6E6F6FEDECEC6C6C6C60000000082
:104AD00000007CC6C6C6C6C6C6C6C67C00000000AE
:104AE0000000FC6666667C60606060F000000000AC
:104AF00000007CC6C6C6C6C6C6D6DE7C0C0E00004C
:104B00000000FC6666667C6C666666E60000000077
:104B100000007CC6C660380C06C6C67C00000000DB
:104B200000007E7E5A1818181818183C0000000063
:104B30000000C6C6C6C6C6C6C6C6C67C0000000003
:104B40000000C6C6C6C6C6C6C66C38100000000047
:104B50000000C6C6C6C6D6D6D6FEEE6C0000000063
:104B60000000C6C66C7C38387C6CC6C600000000ED
:104B70000000666666663C181818183C00000000C5
:104B80000000FEC6860C183060C2C6FE00000000A1
:104B900000003C30303030303030303C000000001D
:104BA00000000080C0E070381C0E0602000000000B
:104BB00000003C0C0C0C0C0C0C0C0C3C000000001D
:104BC00010386CC60000000000000000000000006B
:104BD00000000000000000000000000000FF0000D6
:104BE000303018000000000000000000000000004D
:104BF0000000000000780C7CCCCCCC7600000000DB
:104C00000000E06060786C666666667C000000000C
:104C100000000000007CC6C0C0C0C67C00000000D0
:104C200000001C0C0C3C6CCCCCCCCC760000000002
:104C300000000000007CC6FEC0C0C67C0000000072
:104C40000000386C6460F060606060F0000000009C
:104C5000000000000076CCCCCCCCCC7C0CCC780016
:104C60000000E060606C7666666666E60000000044
:104C700000001818003818181818183C0000000018
:104C800000000606000E06060606060666663C00DE
:104C90000000E06060666C78786C66E600000000FA
:104CA00000003818181818181818183C00000000D0
:104CB0000000000000ECFED6D6D6D6C600000000EC
:104CC0000000000000DC66666666666600000000A4
:104CD00000000000007CC6C6C6C6C67C00000000FE
:104CE0000000000000DC66666666667C6060F000BE
:104CF000000000000076CCCCCCCCCC7C0C0C1E0090
:104D00000000000000DC7666606060F000000000DB
:104D100000000000007CC660380CC67C000000006B
:104D20000000103030FC30303030361C0000000005
:104D30000000000000CCCCCCCCCCCC760000000035
:104D4000000000000066666666663C180000000011
:104D50000000000000C6C6D6D6D6FE6C00000000DB
:104D60000000000000C66C3838386CC60000000037
:104D70000000000000C6C6C6C6C6C67E060CF80007
:104D80000000000000FECC183060C6FE00000000ED
:104D900000000E18181870181818180E00000000DF
:104DA000000018181818001818181818000000002B
:104DB0000000701818180E1818181870000000005D
:104DC000000076DC00000000000000000000000091
:104DD0000000000010386CC6C6C6FE0000000000CF
:104DE0008C10002000000000000000000000000007
:104DF00000000000000000000000000000000000B3
:104E000000000000000000000000000000000000A2
:104E10003131D0BECCC6B5E7D7D3BFC6BCBC323368
:104E200034354142434445464748494A4B4C4D4E30
:104E30004F505152535455565758595A000000007C
:104E40000000000000000000000000000000000062
:104E5000B04500000000000000000000000000005D
:0C4E600000000000000000000000000046
:04000005000000C136
:00000001FF
