:020000040000FA
:10000000201E00109D020000A5020000A7020000B3
:1000100000000000000000000000000000000000E0
:10002000000000000000000000000000A902000025
:100030000000000000000000AB020000AD02000064
:10004000AF020000AF020000AF020000AF020000EC
:10005000AF020000AF020000AF020000AF020000DC
:10006000AF020000AF020000AF020000AF020000CC
:10007000AF020000AF020000AF020000AF020000BC
:10008000132100004D2100000D1C00003B32000038
:10009000AF0200002B3A0000AF020000AF020000E8
:1000A000AF020000AF020000AF020000AF0200008C
:1000B000AF020000AF020000AF020000AF0200007C
:1000C00000F002F800F04BF80CA030C808382418F3
:1000D0002D18A246671EAB4654465D46AC4201D180
:1000E00000F03DF87E460F3E0FCCB6460126334267
:1000F00000D0FB1AA246AB4633431847AC5C000065
:10010000CC5C0000103A02D378C878C1FAD8520704
:1001100001D330C830C101D504680C6070470000BD
:100120000023002400250026103A01D378C1FBD813
:10013000520700D330C100D50B60704710B5642959
:1001400002D103F04BFF10BD732902D104F0D9F99D
:1001500010BD002010BD1FB51FBD10B510BD04F0AF
:10016000E8F91146FFF7F7FF01F09FFB04F000FAF2
:1001700003B4FFF7F2FF03BC00F08EF870B505463C
:100180000C46164602E00FCC0FC5103E102EFAD2D8
:10019000082E02D303CC03C5083E042E07D301CC9E
:1001A00001C5361F03E021782970641C6D1C761E82
:1001B000F9D270BD00203349087033490870704788
:1001C000002808D0304A11784A1C9206920E2E4B15
:1001D0001A702E4A505470472B480078294A1278DA
:1001E000904201D1002070472848264A1278815C4D
:1001F00024480078401C8006800E224A1070084671
:10020000F1E710B5FFF7E8FF030004F0B7F9143782
:100210000E1C1D20270D151E1F0C0B3737373730CE
:10022000373136372BE02AE029E001F09AFC00282C
:1002300001D003F0EDF922E001F093FC002801D099
:1002400003F0E6F91BE01AE019E018E017E01048A7
:10025000807B602108430E49887310E00C48807B46
:10026000602188430A49887303F0ACF807E006E090
:100270000749887B03F077FD01E000E000BF00BF85
:1002800010BD00001300001012000010560E0010E8
:10029000A40000107047704700BFFEE70748804782
:1002A00007480047FEE7FEE7FEE7FEE7FEE7FEE75A
:1002B00004480549034A054B70470000F11E000041
:1002C000C1000000D01B0010201E0010D01B001029
:1002D0007047D2B210B513029A1813049A1803F09B
:1002E000C5FF10BD7047704770470A681070521CF8
:1002F0000A60704700487047701B001021436587F3
:1003000038B5684600F0EEFC6846008864498842CB
:1003100009D1644800F0E5FC624800680002000C66
:100320006149088003E0684600885F4908806846A4
:1003300000885E4A811A904218D00ADC5C49401855
:1003400000281BD0FF38773800280ED01A280AD191
:1003500027E0362908D05748081800280FD05649FA
:100360004018002814D000BF00BF00BF53485449B4
:1003700008607B208003534908601AE000BF7F209B
:1003800000034F4908601B2080034E49086010E0BD
:100390000F2000034A490860032080034949086090
:1003A00007E04648464908607B20800345490860CD
:1003B00000BF00BF202244494148006800F093FC80
:1003C0000024002504E04048005D401985B2641C0B
:1003D0001E2CF8D33C4800683C49884203D13A4877
:1003E000C08BA8420AD039483749086000204872BB
:1003F00008728872FA20C880202088803248807A6B
:10040000302802DB00203049887238BD00B5014633
:100410000B0004F0B3F80605080B0E11140400BF1E
:100420004B20C00100BD4B200002FBE74B204002E7
:10043000F8E7E1200002F5E7E1204002F2E74B2077
:100440008001EFE710B51E4909680901080C00F0AA
:100450004FFC10BD70B504460025002604E0605D29
:10046000801986B2681C85B21E2DF8D3E683144924
:1004700009680901080C00F03BFC0B4800880B4997
:10048000884206D1102221460D48006800F02EFC5B
:1004900005E0202221460A48006800F028FC70BDD3
:1004A000FFFF000008000010000000108C14000086
:1004B00074EDFFFF8CD0FFFF41FBFFFF00F01F003A
:1004C0000C00001004000010840000107856341254
:1004D000FFB58FB0199910984843FF2181318842A8
:1004E00001DD13B0F0BDFE48007F002804D00128D4
:1004F00005D002280DD000BF00200E9012E01999FF
:1005000010984843FF218131081AC003000C0E9057
:1005100008E0199910984843FF218131081A80B2E8
:100520000E9000BF00BFEE482030807800285FD0DA
:100530001898401E84B257E000200D9000BF0121A2
:100540000D988140C8B20C903021684603F09FFEA0
:10055000002528E01198684301190F98405C0C9918
:10056000084000281DD0199868430E994018FF21B3
:100570008031081A86B2002710E0F0106946085C46
:100580007107490F0722521A012191400843F110C7
:100590006A465054781CC7B2701E86B219988742BA
:1005A000EBDB681C85B210988542D3DB002709E09D
:1005B000CC480078012800D107E0684602F0CFFF60
:1005C000781CC7B21A988742F2DB00BFC548007892
:1005D000012800D105E00D98401CC0B20D900828FC
:1005E000ADDB00BF601E84B212988442A4DA59E0E9
:1005F000129C54E007200D9000BF01210D9881400E
:10060000C8B20C903021684603F041FE002525E079
:100610001198684301190F98405C0C990840002814
:100620001AD0199868430E99401886B2002710E036
:10063000F0106946085C7107490F0722521A012120
:1006400091400843F1106A465054781CC7B2701CA0
:1006500086B219988742EBDB681C85B210988542F8
:10066000D6DB002709E09F480078012800D107E089
:10067000684602F074FF781CC7B21A988742F2DB12
:1006800000BF98480078012800D105E00D98411E70
:10069000C9B20D910028B0D100BF601C84B2189877
:1006A0008442A7DB00BF1CE7FEB504468D480078F6
:1006B000012802D100208B4908708948008A00284F
:1006C0000CD0012006220190009202908648437AC5
:1006D0008648018884480A30FFF7FAFE8248407A4B
:1006E0000621081AC004050C7D48807EA84204DD5E
:1006F0007B48807E401B001984B2002C02D020462B
:1007000002F035FFFEBD3EB504467648007801286C
:1007100002D10020734908707148008A00280CD06B
:10072000012006220190009202906F48437A6F48A0
:1007300001886D480A30FFF7CBFE002C02D020461E
:1007400002F015FF3EBD10B504462046FFF7ACFF92
:100750000021674801740921090263480A3003F047
:1007600094FD00205E4908826049088006205E49A9
:10077000487210BD10B504462046FFF7C4FF0021A3
:100780005B4801740921090257480A3003F07DFDD6
:100790000020534908825549088006205249487272
:1007A00010BDFFB585B00120514908740798C010ED
:1007B00007904B4880790007000F401C0799484379
:1007C000C0B203900398062801D909B0F0BD0621F4
:1007D0000398081AC7B2424880790011401C069954
:1007E0004843C5B23E48C08B3D49098C401886B28B
:1007F000FF208130864205DD3948C08BFF218131E1
:10080000081A86B23648008A00280AD03448008A7E
:1008100040193349C98B8919884202DD0020FFF74E
:1008200092FF2F48008A002811D1B5420BDD2C48D9
:10083000C08BFF218131081AA84204DA0846401B08
:100840002749088203E02648C08B254908822448AE
:10085000008A0290002430E06846079A059900F06B
:100860002BFB07990598401805900020049000BFC5
:100870001B48008AFF218131884211D21849098A18
:1008800006225143184A0A328918C8196946039A40
:1008900003F09EFC1248008A401C1149088200E0C7
:1008A00008E00498411C89B204910D498979091125
:1008B0008842DDDB00BF601C84B206988442CBDB3B
:1008C0000898002804D00648018A029800F047FBE7
:1008D0000548407AB84201DD03484772004809E004
:1008E000A400001074000010440500101000001057
:1008F000440E0010008A4F49C97E40184D49C98BEB
:100900008919884203DD0020FFF71DFF06E04948F2
:10091000008A4849C97E4018464908824548007BFC
:10092000002812D00298401984B20AE006216143DF
:10093000414A8918C819FF220399FFF7CAFC601CB5
:1009400084B23C48008AA042F0DC0898002804D019
:100950003848018A029800F002FB3648008A37497D
:100960000988884203DD3348008A3449088000BF83
:100970002BE7F7B586B006461446E410062C00D9DE
:1009800006240620001B85B22B480A38407AA8426C
:1009900002DD29490A394D722648008A002803D110
:1009A0002448C08B23490882002005901CE036199A
:1009B0002048008AFF218131884210D21D49098ACE
:1009C000062251431C4A891848192246314603F031
:1009D000FFFB1848008A401C1649088200E007E027
:1009E0000598401C80B20590079905988842DEDB87
:1009F00000BF1048008A00280ED001200622019076
:100A0000009202900C480A38437A0A48008A01464C
:100A100004900948FFF75CFD09210902064803F02C
:100A200034FC002003490882062103480A38417239
:100A300009B0F0BDA40000104E0500101000001019
:100A400010B500204D49C8704D48807A08710020CB
:100A5000487188710C20C8711820087200204872F3
:100A60008872C8720873C8730882487306214548A3
:100A70004172092109020A3003F007FC002407E053
:100A8000E0000930C1B23D4812300155601CC4B2CB
:100A9000082CF5DB1E20394988760020C8760877B7
:100AA000C883FF20813008840021344820308170C1
:100AB0003221C17002210171002141718171C17126
:100AC000017200203049C885012020318872002041
:100AD00008742A48807B002802D112202749887395
:100AE00010BD10B5FFF7ACFF10BD38B503F043F9EA
:100AF00004461B2811D006DC0A2809D00D280BD08B
:100B000018280ED10CE01C2808D01D2809D106E0B9
:100B10000020FFF718FE2FE02EE02DE02CE02BE068
:100B20002AE0202C05DB7F2C03DC204600F0F0FBC4
:100B300021E0812C1FDBFE2C1DDC6846047003F0D5
:100B40001AF9014668464170407840280CDB684637
:100B50004078FE2808DC684640787F2804D00221CF
:100B6000684600F041FC05E03F2000F0D1FB3F204B
:100B700000F0CEFB00BF00BF00BF38BDA4000010D6
:100B80008400001044050010240E0010072100BF4F
:100B900000BF0022574B1A6000BF01228A4002406A
:100BA000002A04D000BF1022534B1A6004E000BF9B
:100BB0000022514B1A6000BF00BF012252024D4B70
:100BC0001A6000BF0A464B1ED9B2002AE0D1704716
:100BD0000020072100BF00BF0022464B1A6000BF63
:100BE00000BF012252021A6000BF434A403A126A13
:100BF000002A03D001228A400243D0B20A464B1E8B
:100C0000D9B2002AE7D1704770B505460C46284690
:100C1000FFF7BCFF2102080EFFF7B8FF2104080E02
:100C2000FFF7B4FFE0B2FFF7B1FF70BD10B500BF32
:100C300000203249086000BF0520FFF7A7FFFFF73B
:100C4000C7FF044600BFFF2001302C49086000BFE9
:100C5000204610BD10B500BF00202849086000BF25
:100C60000620FFF793FF00BFFF20013023490860F3
:100C700000BF10BD10B500BF00202049086000BFB4
:100C80000420FFF783FF00BFFF2001301B490860ED
:100C900000BF10BD10B500BF00201849086000BF9C
:100CA0005020FFF773FF00BFFF2001301349086099
:100CB00000BF10BD10B50446FFF7ECFF00BF0020D9
:100CC0000E49086000BF0120FFF760FF2046FFF7D4
:100CD0005DFF00BFFF2001300849086000BF10BD64
:100CE000704770477047704770477047704770474C
:100CF0007047704700080150400001500004015047
:100D000030B5C1B004460D46FF220132FC4901A8AE
:100D1000FFF734FA00BF207801A9085C2070641C3A
:100D2000681EC0B20500F6D141B030BD70B50346B3
:100D3000F44C647A002C03D1F24CA47A002C7DD0C0
:100D4000082B33D00C2B04D0102B78D0182B2CD19F
:100D500056E00B2027E0002122E0072200BF441EBE
:100D600065006519E74C29342C19645C0125954010
:100D70002C40002C0FD044000519E24C29342C19CA
:100D8000645C012595402C43E5B244000619DD4C16
:100D90002934341965541446521E002CDFD1491CE5
:100DA0000329DAD3401E0028D5D183E0072024E0B0
:100DB00000211FE0072200BF441E6500D14C2934EA
:100DC0002C19645C012595402C40002C0DD0450069
:100DD000CC4C29342C19645C012595402C43E5B298
:100DE0004600C84C2934341965541446521E002C50
:100DF000E2D1491C0229DDD3401E0028D8D159E098
:100E000017202AE0002125E0072200BF441E6500CC
:100E10006519BC4C29342C19645C012595402C4083
:100E2000002C12D044000519B64C29342C19645CEE
:100E3000012595402C43E5B2440001E03BE00FE082
:100E40000619B04C2934341965541446521E002C2E
:100E5000DCD1491C0329D7D3401E0028D2D129E078
:100E60000F2024E000211FE0072200BF441E650080
:100E7000A44C29342C19645C012595402C40002C8D
:100E80000DD045009F4C29342C19645C01259540F8
:100E90002C43E5B246009B4C293434196554144662
:100EA000521E002CE2D1491C0229DDD3401E00282D
:100EB000D8D100BF00BF70BDF7B584B006460F465D
:100EC000904880790007000F451C012D06D1394656
:100ED0003046069A03F07CF907B0F0BD002406986E
:100EE00068430146304603F0D0F9002002902FE01D
:100EF00038787F1C00900720019000BF01200199E5
:100F0000884000990840002816D00020039000BFB8
:100F1000E010305C6107490F0722521A012191400D
:100F20000843E1107054601C84B20398401CC0B2A6
:100F30000390A842ECDB01E0601984B20198411EE5
:100F4000C9B201910028D9D10298401CC0B20290C8
:100F5000069902988842CBDB00BFBDE7704770B5A9
:100F60000A46684BDB7B002B03D1664B1B7B002BB7
:100F700000D070BD634BDB7A002B09D0812B02D0EF
:100F8000822B04D101E0012103E0032101E000BF35
:100F9000EFE700BF0CE0062343435B4C1B195B7972
:100FA0000B4306244443584D64196371431C98B2A3
:100FB000904203DAFF2381339842ECD300BFD8E795
:100FC00010B5002206E00378FF2463400370401C44
:100FD000531CDAB28A42F6DB10BD10B5044649480C
:100FE000007B002821D0082C0CD00C2C04D0102C15
:100FF00014D0182C18D10BE0242142482930FFF7D7
:10100000DFFF11E010213F482930FFF7D9FF0BE047
:1010100048213C482930FFF7D3FF05E0202139481B
:101020002930FFF7CDFF00BF00BF10BDFFB581B075
:10103000039EF51DEE17760F76197603340C0A9D84
:10104000002D06D0012D1BD0022D5FD0032D7DD1A8
:1010500093E0002011E000210BE0029D2E78019D1D
:101060002E70019D6D1C0195029D6D1C02954D1CFD
:10107000A9B2A142F1DB451CA8B29842EBDBB7E074
:101080000022204639E00025009500BF00212AE01B
:101090000D4665432D186D1E029E755D0127009E4D
:1010A000B7403D40002D0DD0D610019DAD5D5607D7
:1010B000760F0727BF1B0126BE403543EEB2D7107F
:1010C000019DEE55551CAAB25D1E8D4209D15D07EA
:1010D0006D0F002D05D05D076D0F0826751BAD182F
:1010E000AAB24D1CA9B29942D2DB009D6D1CADB2D3
:1010F0000095082DCADB451EA8B20028C3DC77E0A6
:1011000054590000A40000104E050010184631E0AC
:1011100021462BE00725009500BF451E65436D184D
:101120006D1E029E755D0127009EB7403D40002D5B
:1011300014D01D1A6543661AAE19019DAD5D0727CF
:10114000009EBF1B0126BE40354300E04FE0EEB2DB
:101150001D1A6543671AEF19019DEE55009D6E1E1D
:10116000B6B20096002DD8D14D1EA9B20029D1DC0F
:10117000451EA8B20028CBDC3AE00022002033E074
:101180000725009500BF194624E04D1E65432E1823
:10119000029DAD5D0127009EB7403D40002D0DD062
:1011A000D610019DAD5D5607760F0727BF1B0126A0
:1011B000BE403543EEB2D710019DEE55551CAAB284
:1011C000012905D15D076D0F0826751BAD18AAB260
:1011D0004D1EA9B20029D8DC009D6E1EB6B2009645
:1011E000002DD0D1451CA8B2A042C9DB00E000BF51
:1011F00000BF05B0F0BDF0B50446154600227F29BA
:1012000001D10020F0BDA12C0BDBAB2C09DCA12906
:1012100007DB2046A1385E2670430E46A13E8219A8
:1012200012E0A82C10DBA92C0EDCA1290CDA7F29F6
:1012300001DD481EC1B22046A838602670430E4624
:10124000403E8019D04E8219B02C0EDBF72C0CDCFE
:10125000A1290ADB2046B0385E2670430E46A13E27
:101260008019C94EC036821928E0A12C12DA812CCF
:1012700010DB7F2901DD481EC1B220468138BE2621
:1012800070430E46403E8019BF4EC0368019BF4E97
:10129000821913E0AA2C11DBA1290FDA7F2901DDC5
:1012A000481EC1B22046AA38602670430E46403E12
:1012B0008019B54EC0368019B54E8219302925DB0C
:1012C000392923DC302B01DB392B01DD002099E7A4
:1012D00028468138AE4EF83E464318463938AD4F61
:1012E000784336182046EE380A27784336180846E1
:1012F00039383018A84E82193046824204D3A748A4
:10130000824201D810467DE700207BE7104679E74E
:1013100010B58EB00446A248C07908280DD00C281C
:1013200016D120462038242250439E4A8118242278
:101330009B48293002F04CFF0AE02046203800018B
:10134000994A811810229648293002F041FF00BFC7
:1013500000BF9349C879FFF7E9FC9149087AFFF784
:10136000FDFD8F49C879FFF738FE8D48C079082800
:101370002FD00C2835D1302102A802F088FF8848F0
:10138000C07B012803D08648C07B032810D1844845
:10139000C07B0C23182282492931009002A8FFF754
:1013A00045FE01231022182102A8FFF7FAF90FE0E9
:1013B0007B48C07B0C23182279492931009002A870
:1013C000FFF734FE012318220C2102A8FFF7E9F9E8
:1013D00007E001231022082171482930FFF7E1F9C5
:1013E00000BF00BF0EB010BDF0B593B004460E466E
:1013F0006B48007A10282AD0182839D1002E04D042
:10140000022E03D0032E0BD000BF00BF61782078DE
:1014100000231A46FFF7EFFE48214843054609E03E
:10142000E378A27861782078FFF7E5FE4821484309
:10143000054600BF00BF4822594929312846FFF719
:1014400052FC482156482930FFF75AFC10E020781A
:10145000A1385E2148436178A139401840015349C1
:10146000451820224E4929312846FFF73CFC00BF91
:1014700000BF4B49087AFFF759FC4949087AFFF742
:101480006DFD4749087AFFF7A8FD4548007A102806
:101490002FD0182835D1482101A802F0F8FE404885
:1014A000C07B012803D03E48C07B032810D13C48B4
:1014B000C07B18231A463A492931009001A8FFF74A
:1014C000B5FD01231822114601A8FFF76AF90FE0C4
:1014D0003348C07B18231A4631492931009001A8AE
:1014E000FFF7A4FD01231822114601A8FFF759F9BF
:1014F00007E001231022114629482930FFF751F94E
:1015000000BF00BF13B0F0BD70B504462448857914
:101510000020234988710846C07908280DD00C287E
:1015200016D120462038242250431E4A81182422F6
:101530001B48293002F04CFE0AE02046203800010A
:10154000194A811810221648293002F041FE00BFC6
:1015500000BF1348C079082809D00C280FD10023F8
:1015600018220C210E482930FFF71BF907E0002351
:10157000102208210A482930FFF713F900BF00BFE5
:101580000748857170BD00004E030000701A00000E
:1015900030320000EC0400001E560000A06F000076
:1015A000A4000010B845000038530000703818003F
:1015B00030B513468B4084001F4D2D5901248C40BB
:1015C000A4002B5130BD30B5002A11D083001A4C35
:1015D000E3580124E4031B191B6801248C402343B6
:1015E0008400154D2C590125ED036419236010E08A
:1015F0008300114CE3580124E4031B191B680124E8
:101600008C40A34384000C4D2C590125ED03641933
:10161000236030BD10B5024600239000064C2458CC
:101620000120884080002058002801D0012300E0DC
:101630000023D8B210BD0000545A000010B501219B
:101640000020FFF7E7FF00281CD05C480078C007A7
:10165000C00F00280FD15948007802210840002807
:1016600056D00220FEF7ACFD544800780221884392
:10167000524908704CE051480078400840004F49FA
:10168000087045E04D480078C007C00F002839D0E9
:101690004A4800780221084000280DD10120FEF7B9
:1016A0008FFDAF2080004649088044480078022121
:1016B0000843424908702BE041480088002827D0A1
:1016C0003F480088401E3E490880084600880028A0
:1016D00013D0C8280DD0FF38F538002805D096283B
:1016E0000FD10620FEF76CFD0BE00720FEF768FD2A
:1016F00007E00820FEF764FD03E00920FEF760FD27
:1017000000BF05E02D480078012108432B490870EF
:1017100004210020FFF77EFF00281CD02748007816
:101720000421084000280FD12448007808210840EF
:1017300000282CD00A20FEF743FD2048007808211D
:1017400088431E49087022E01C4800780421884321
:101750001A4908701BE01948007804210840002845
:101760000FD0164800780821084000280FD10B2020
:10177000FEF726FD11480078082108430F4908703C
:1017800005E00E480078042108430C49087010BD9C
:1017900010B510200B490861002201211046FFF707
:1017A00012FFFF2001300749086300220421104680
:1017B000FFF709FF00200149087010BD1400001058
:1017C000160000100040044010B500202A490861AE
:1017D00001220721FFF7F7FE00BF0020274908601C
:1017E00000BF10BD10B500F0BCF900283BD100F0DF
:1017F000C2F9002832D122480021415600290FDDCC
:101800000078401E40B21E490870002832D100BF47
:101810001A49086000BF3B20C0431949087029E0FD
:1018200017480021415600290FDA0078401C40B2C9
:101830001349087000281DD100BF80200F4908609F
:1018400000BF3C200E49087014E000BF80200B4907
:10185000086000BF3C200A4908700BE000BF002070
:101860000649086006E000BF00200449086000BF88
:101870000349087010BD00004040044000020050C1
:10188000180000107D20800100BF0146401E002985
:10189000FBD1704700B5034601E0FFF7F3FF1846A0
:1018A000591E8BB20028F8D100BD00F021FBFFF7D4
:1018B0008BFF01F0FBFC00F029F8002000F02AFA71
:1018C000FFF70EFAFEF776FCFEF71AFD0E49487A8E
:1018D000FEF79CFD044602F0B6F901F06EFDFFF73D
:1018E00000F9FFF755FF00BF002205210120FFF797
:1018F0005FFE00BF6420FFF7CDFF00F031F801E08C
:10190000FFF7F3F8FCE700008400001010B5EF4883
:10191000806B10218843ED498863ED480068012100
:1019200049030843EA4908600220EA49486388639A
:101930000120E84940318861E748E8490860022110
:10194000122000F08BF9E649002000F00AFE2F205B
:10195000E449C8600020E449887300F0E7FD10BD49
:1019600010B5DE4800690004800D502801D2012026
:1019700000E00020002812D1DC4800784008400038
:10198000DA4908700846007802210843D7490870F0
:10199000D548807B60218843D349887311E0D348C0
:1019A000007801210843D1490870084600780221D7
:1019B0008843CE490870CC48807B60210843CA49DF
:1019C0008873002000F0A8FD10BD10B5C348006961
:1019D0000004800D01214902884207D2BF480069F6
:1019E0000004800D502801D9012000E000200028CB
:1019F00029D0BE48007804210840002808D1BB48FF
:101A000000780843B94908700120B949087043E0DB
:101A1000B748007800283FD0B5480078401EC0B2D3
:101A2000B3490870002837D1B04800780821084031
:101A3000002831D1AD4800780843AC490870102027
:101A4000FEF7BEFB28E0A9480078042108400028E2
:101A500008D0A64800788843A44908700120A4490A
:101A6000087019E0A2480078002815D0A048007836
:101A7000401EC0B29E49087000280DD19B480078D6
:101A800008210840002807D09848007888439749E3
:101A900008701120FEF794FB10BD10B50446002C11
:101AA0002AD192480078C007C00F002809D18F487A
:101AB0000078012108438D49087005208D49087080
:101AC00044E08C480078002840D08A480078401EC6
:101AD000C0B288490870002838D1844800780221B3
:101AE0000840002832D18148007808437F490870B7
:101AF0000520FEF765FB29E07C480078C007C00F91
:101B0000002809D0794800784008400077490870DB
:101B100005207849087019E076480078002815D02B
:101B200074480078401EC0B27249087000280DD178
:101B30006E48007802210840002807D06B480078E2
:101B400088436A4908700420FEF73AFB10BD6748D5
:101B5000007808210840002801D0002070470120AB
:101B6000FCE76248007802210840002801D00120EB
:101B700070470020FCE75D480078022108400028FB
:101B800001D0012070470020FCE710B55348C06A1F
:101B90000004840D584800680019574908605748E8
:101BA0000068002807D0564800681F280DD1002083
:101BB0005249086009E05248006840005149085AFB
:101BC0004D490968081A4C4908604C4800680028CB
:101BD00009D04B480168491C4748006802F059FB8E
:101BE0004949088005E044480068C002000C4649A5
:101BF0000880434909684900424A545240480078E5
:101C0000401CC006C00E3E49086010BD10B53548E6
:101C10000068C007C00F002816D0FFF70FFDFFF7C0
:101C2000D4FE2E4909690904890D502901D20121E8
:101C300000E000210846FFF730FFFFF7D3FDFFF774
:101C4000A4FF0120274908602648006810210840A9
:101C5000002802D010202349086010BD10B50028CC
:101C600019DA2A4A03071B0F083B9B089B00D2582E
:101C70008307DC0EFF23A3409A434B071B0E840708
:101C8000E40EA3401A43214B0407240F083CA40888
:101C9000A4001A5118E01E4A03231B02D21883081D
:101CA0009B00D2588307DC0EFF23A3409A434B07C7
:101CB0001B0E8407E40EA3401A43154B0324240291
:101CC0001B198408A4001A5110BD000000820440B2
:101CD0008080044040400440830B010000C001406C
:101CE0001027000000400140A40000101C0000105C
:101CF0001F0000101D000010240000102C00001018
:101D000028000010960E0010200000101CED00E0CE
:101D100000E100E0002835D14C4949680122114317
:101D20004A4A5160494980310968D2141143474AEF
:101D300080321160012151610221454A11634449F9
:101D40004039C968C908C900414A403AD1601146C2
:101D5000C968122211433E4A403AD1601146496A8D
:101D6000C908C90051621146496A11221143384A13
:101D7000403A51623749384A11600221516011617D
:101D80000321116201284ED13049496801221143D3
:101D90002E4A51602D4980310968820411432B4A33
:101DA000803211600121D161294980398968C908CF
:101DB000C900274A803A916011468968022211437E
:101DC000234A803A91601146896AC908C900916224
:101DD0001146896A022211431D4A803A91621C49C8
:101DE0004039C969C908C900194A403AD161114648
:101DF000C96902221143164A403AD1611449C9689F
:101E0000C908C900124AD1601146C96802221143AB
:101E10000F4AD160FF210831104A11600221516040
:101E2000116103211162704700BF0B49C968C907DE
:101E3000C90F0029F9D00849886000BF0649C96860
:101E4000102211401029F9D0704700000080044092
:101E5000804004400702000000000440008005406C
:101E60004A494B4A116001214A4A116051600021E0
:101E700051600121516000BF46494968C907C90F37
:101E80000029F9D0434940398868400A4002252199
:101E90000143404A403A91603F49896B8022914317
:101EA0003D4A916300BF3B494039C968C907C90F22
:101EB0000029F8D00321374A116301215163002121
:101EC00051630121516300BF3249496BC907C90FF2
:101ED0000029F9D001212F4A91632D490968062272
:101EE00051432E4A1160114609682D4A116070470E
:101EF00000B500202749403908622748806B20211F
:101F0000884325498863002300E05B1CFF2BFCD934
:101F1000FFF7A6FF1F48403000680121090408436D
:101F20001C494031086008460068402108431949AF
:101F30004031086000BD1B481B4948610020886192
:101F4000012008617047184881691848006881427B
:101F500008D916480068081A154A12688018144AE9
:101F6000106007E011480068401A114A1268801892
:101F70000F4A10600D4801600D480068704700B5B9
:101F80000346FFF7E0FFC01A00BD000000127A0010
:101F900030000010408004400082044034000010F3
:101FA00038000010FFFFFF0000E000E040000010DC
:101FB0003C000010F8B504460D4616461F46002E9C
:101FC0000BD0AC4202D320467043F8BD291B2246F9
:101FD0007243104602F05DF9F7E7002C00D10124AE
:101FE000291B79430846214602F053F9EDE7F8B57D
:101FF0000546002408E0601C40002349085AA84216
:1020000000D803E0601C84B2182CF4DB00BF182C4D
:102010000EDB1D4AD28D1C4B1B8ED11A1A4A128E12
:10202000521B9300D01802F034F9503006B216E07B
:102030006200154B9B5A621C5200134FBA5A991AF0
:10204000621C52003B469A5AAA1A9300D01802F01A
:1020500020F9611C8A008918081A283806B230460F
:10206000F8BD70B5094840690004850D0023FF22C2
:102070002D3207492846FFF79DFF0646FFF7B7FFB9
:102080000446204670BD0000745A000000C00140A4
:10209000FF03000070B504460D46002C1BD1022042
:1020A000F74948600020C8607D21C900F5480068F4
:1020B00002F0EFF86843F2498861FF2008600420CD
:1020C00048610120486000BFED484068C007C00F6C
:1020D0000028F9D11CE0012C1AD10220EA494860FD
:1020E0000020C8607D21C900E648006802F0D1F8F0
:1020F0006843E5498861FF200860042048610120A9
:10210000486000BFE0484068C007C00F0028F9D110
:1021100070BDDB480068C007C00F002807D0012051
:10212000D7490860D9480068401CD8490860D4489D
:10213000006810210840002807D01020D04908600E
:10214000D3480068401CD24908607047CE480068F8
:10215000C007C00F002807D00120CB490860CD4838
:102160000068401CCB490860C7480068102108403F
:10217000002807D01020C4490860C7480068401CE8
:10218000C54908607047002803D10121BC4A51604D
:1021900002E00121BC4A51607047002803D10021B0
:1021A000B74A516002E00021B74A516070470146CA
:1021B000002906D1B24A506802221043B04A50604A
:1021C00005E0B14A506802221043AF4A50607047A0
:1021D00070B504460D46002C3CD1B0480068802103
:1021E0000843AE490860AE48C069C008C000AC49A9
:1021F000C8610846C06902210843A949C861A848C6
:102200004030006AC008C000A54940310862084655
:10221000006A02210843A249403108620846406A28
:10222000C008C00048620846406A022108439C4931
:1022300040314862002095490860954908609048FF
:10224000856105208E49886203204861102000F0D6
:1022500055F93CE0012C3AD190480068210208432E
:102260008E4908608E484069C008C0008C494861AA
:102270000846406901210843894948610846806B46
:10228000C008C00088630846806B01210843844968
:10229000886383484030C06AC008C000804940312C
:1022A000C8620846C06A022108437D494031C862BD
:1022B00000207849086078490860734885610520E6
:1022C0007149886203204861112000F017F970BD40
:1022D000F8B506460D4614461F463046FFF75DFF2B
:1022E000012E62D16D480068310208436B490860D5
:1022F000AD20C00020436449C863E007C00F002838
:102300000BD06748806BC008C000654988630846E9
:10231000806B012108436249886302202040002825
:102320000ED05F484030C06AC008C0005C494031F0
:10233000C8620846C06A0221084359494031C86250
:1023400008202043504940314863564805600068E2
:102350004D49486253480068400888615148006808
:102360004008C8614F480068400808620815486185
:10237000002F16D04A484069C008C000484948614B
:1023800008464069112108434549486146480068AC
:1023900089158843444908600F203B49086007209D
:1023A0008862112000F0AAF85EE03C4800688021B5
:1023B00008433A490860AB20C00020433049C86355
:1023C000E007C00F00280ED035484030006AC00832
:1023D000C0003349403108620846006A02210843C0
:1023E0002F49403108620220204000280ED02C489E
:1023F0004030406AC008C000294940314862084660
:10240000406A0221084326494031486204202040A6
:1024100000280ED022484030806AC008C000204901
:10242000403188620846806A032108431C494031D4
:102430008862082020431249403148631B480560E8
:1024400000680F49486219480068400888611748C9
:1024500000684008C861154800684008086208150F
:102460004861102000F04AF8F8BD00282ED000295D
:102470001ED001291FD0022920D0032924D120E019
:1024800000C000403800001000000140440000106F
:102490004C000010480000105000001080800440E4
:1024A000004004405800001000800150540000100B
:1024B000164B9A6109E0154BDA6106E0134B1A627C
:1024C00003E0124B5A6200E000BF16E0002906D07C
:1024D000012907D0022908D003290CD108E00C4BB0
:1024E0009A6109E00A4BDA6106E0094B1A6203E0DF
:1024F000074B5A6200E000BF00BF7047C206D20E11
:1025000001219140034A1160704700000000014022
:1025100000C0004000E100E0002803D101214D4A45
:10252000516002E001214C4A51607047002803D1FC
:102530000021484A516002E00021474A516070473B
:102540000146002906D1434A506802221043414AFD
:10255000506005E0404A5068022210433E4A5060F5
:10256000704770B504460D46002C47D13B480068C3
:10257000012149020843394908603948006AC00806
:10258000C000374908620846006A022108433449FE
:1025900008620846406AC008C00048620846406AAF
:1025A000022108432E4948620846806AC008C000DC
:1025B00088620846806A02210843294988622848BF
:1025C00080380069C008C000254980390861084684
:1025D000006902210843224980390861002021490D
:1025E0000860214908601B488561052019498862F7
:1025F00003204861122000F025F822E0012C20D1B0
:1026000016480068A102084314490860144840694C
:10261000C008C000124948610846406902210843C9
:102620000F494861002011490860114908600A48B3
:10263000856105200849886203204861132000F065
:1026400001F870BDC206D20E01219140094A116005
:10265000704700000040014000800140808004403D
:10266000804004405C000010640000106000001016
:102670006800001000E100E010B500BF0020F7493D
:10268000886000BF00BF086100BF00BF132001F0D9
:1026900017F900BF00BF0020F149086100BFF149F0
:1026A000087010BD08B501F0E3FB0020EE49087486
:1026B00009210902ED4801F0E8FD0020EC490882FB
:1026C000EC4908800620E9490A3948723020009018
:1026D00002E00020FFF7A8FB69460888411E8AB285
:1026E00000920028F5D100BFE349086000BF6420D4
:1026F000009000BF69460888411E8AB200920028F7
:10270000F8D100BFFF200130DB49086000BFD54889
:10271000008DD4494885FFF7AFFF0120D7490870E5
:1027200008BD10B5044600BF0020D549086000BFB1
:10273000CC4840784007400F030001F01FFF080518
:102740001C31475C7389A0B600BF0420052109072E
:10275000086100BF00BF0020086200BF00BF10205A
:10276000BF494031086000BF00BF0020BC49803134
:10277000086000BF99E000BF042005210907086137
:1027800000BF00BF0020086200BF00BFB449403155
:10279000086000BF00BFB2498031086000BF84E01C
:1027A00000BF042005210907086100BF00BF002009
:1027B000086200BF00BFAA494031086000BF00BFE7
:1027C0002020A7498031086000BF6EE000BF0020D4
:1027D00005210907086100BF00BF086200BF00BFF4
:1027E0009F494031086000BF00BF20209C498031D4
:1027F000086000BF59E000BF0020052109070861FB
:1028000000BF00BF0820086200BF00BF002094493D
:102810004031086000BF00BF20209149803108602E
:1028200000BF42E000BF002005210907086100BF8A
:1028300000BF0820086200BF00BF00208849403167
:10284000086000BF00BF86498031086000BF2CE0EF
:1028500000BF002005210907086100BF00BF082054
:10286000086200BF00BF10207D494031086000BFF2
:1028700000BF00207A498031086000BF15E000BF2A
:10288000002005210907086100BF00BF086200BFE2
:1028900000BF102072494031086000BF00BF002017
:1028A0006F498031086000BF00BF00BFFFF74FF9DC
:1028B000002803D100217348416008E07148406856
:1028C000002804DB6F484068401C6E49486000BF28
:1028D000012080026A49086000BF62484078001900
:1028E0006049487010BD704770B505460C4613200E
:1028F000C04384420BDB552C09DC634A211A515C2E
:1029000069430846642101F0C4FC05460FE013202A
:10291000C043844208DA5C49097869430846642167
:1029200001F0B7FC054602E0552C00DD6D08284695
:1029300070BD70477FB505460C4654A30FCB6E465D
:102940000FC6402C0DDA2646E117890F8919891028
:102950006A46515C69430846642101F09AFC0546C9
:1029600007E06946C97B69430846642101F091FC90
:102970000546284604B070BDF3B583B00646394914
:10298000C868FFF7B0FF84B220460499FFF7D2FF72
:1029900084B2FFF766FB014601902046FFF7A4FFD3
:1029A00084B22046FFF7C5FF84B22E4884602046DB
:1029B000704384B22046643084B277E000200290F5
:1029C000002519E02748203080794019A72807D230
:1029D0002448203080794019400030490F5A01E0E6
:1029E0002F488789A9001F48143047500298C01902
:1029F00080B20290681CC5B2042DE3DB0298A042AD
:102A00001DDA184820308079002808D01548203079
:102A10008079401EC1B213482030817146E0002504
:102A20000AE02046E117890F09188A10AB000D490A
:102A30001431CA50681CC5B2042DF2DB37E00948D6
:102A400020308079001DA6282CD2064820308079BD
:102A5000001DC1B203482030817126E00000015002
:102A600000000350D80E0010440E00104E05001058
:102A7000A4000010100000100004005074000010AA
:102A80000010015058100010065C0000464A4E52DB
:102A900056585A5C5D5E5F6061626464B85A0000BB
:102AA000F85B0000A621F648817100E086E700BFD0
:102AB00005B0F0BDF24989794900F24A505AF0490F
:102AC0008979A62905D2EE498979491CCAB2EC490F
:102AD0008A717047EC498861704710B5FFF7EAFFCB
:102AE0000446FFF7F7FFFFF73CF8012801D000206C
:102AF00010BDE3482038808D002809D00120FFF761
:102B000010FEDF482038808D401EDD492039888541
:102B1000DB482038808D002801D00120E8E7002024
:102B2000E6E700BF0020D949886000BF00BF086108
:102B300000BF3C20D24920398885012008707047A9
:102B400070B505464121284601F0ADFB461C3146D3
:102B5000284601F0A8FB84B2601C402801DC84B246
:102B600000E04024204670BDF1B586B00020029000
:102B70000390302106984843064615E0C0482038A7
:102B8000408D31214843C2494018875DC148C05D2E
:102B9000059002990598081880B202900398401C8D
:102BA00080B20390701C86B203983028E6DB02984E
:102BB000FFF7C6FF02903021B148113001F065FBEC
:102BC0000020039030210698484306460024002048
:102BD000049068E0AA482038408D31214843AC4930
:102BE0004018875DAB48C05D0590049905980918A9
:102BF000029881420BDC05990498401880B2049039
:102C0000302060439E4911314018875545E000252A
:102C100041E09B482038408D312148439C49401871
:102C2000875D6907490F0722521A012191400F4021
:102C3000002F2ED00498401C0299884204DC04988E
:102C4000401C80B204900BE0601CC4B201200490D0
:102C5000302161438A4A11328818302101F015FB76
:102C6000E817400F4019C010821930206043844992
:102C7000113140180195805C3843E917490F491913
:102C8000C9108A19302161437D4B1133C918019550
:102C90008854681C85B2082DBBDB0398401C80B2A9
:102CA0000390701C86B20398302893DB04980028A8
:102CB00001D0601CC4B27248C47300210174204664
:102CC0000299FFF759FE07B0F0BD70B504460D46F6
:102CD00003E02078641CFFF7A7F82846691E8DB230
:102CE0000028F6D170BD10B56549097C30225143EA
:102CF000634A113288183021FFF7E7FF10BD70B525
:102D0000FEF72FFF012804D0FFF7B6FC0024204671
:102D100070BD5B482038008D59492039498D884263
:102D200079D057482038408D3121484358494018C0
:102D30002030007C002804D0012838D002286BD134
:102D400017E00020FFF710FF4D48017CC07B814257
:102D500001DAFFF7C8FF0020494920390861002146
:102D60004748017141710320454920390870012409
:102D700080E043482038408D312148434449085C75
:102D80003F492039498D31225143414A89184978B8
:102D9000090208433A49203988850846408D401C7D
:102DA0000007000F488505200870022462E000BF7C
:102DB00000203649886000BF00BF086100BF30486E
:102DC0002038408D3121484331490D5C2C49203950
:102DD000498D312251432E4A8918497809020D4301
:102DE00027482038408D401C0007000F2449203917
:102DF00048852948406800281ADD27484068274947
:102E00008988884209DB1E482038858506201C49B0
:102E1000203908701FE02EE01FE0204881881E48FE
:102E20008088081A1649203988850820087012E021
:102E300019484068002807D11148203885850720A7
:102E40000F492039087006E00D4820388585062096
:102E50000B492039087002240CE009482038408DC5
:102E6000401C0007000F064920394885FFF704FC85
:102E7000002400BF02E0FFF754FE0024204647E78D
:102E8000F80E0010B85A0000008001400000015008
:102E900060100010705C00005810001084000010DA
:102EA00010B5FA480078030001F068FB0EFCFB083F
:102EB000272BFAF9F8F7F6F6F6F6F5F6FFF71FFF07
:102EC000012802D0022816D10AE000BF0420F049F0
:102ED000086100BFFFF7EEFD0446FFF7FBFD0AE0C7
:102EE00000BF0420EA49086100BFFFF7E3FD044684
:102EF000FFF7F0FD00BF00BF9DE10120FFF711FCCF
:102F000000BFE2480069002846D0E0482030007940
:102F10008100DE4814304058DC49096988421BD9D9
:102F2000DA49098A88B2FFF7D5FDD8482030007900
:102F30008100D64814304058D4490969411AD34811
:102F4000203000798200D148143081500020CF49D0
:102F5000086104200870D7E0CC49203109798A0043
:102F6000CA491431895A88B2FFF7B4FDC7480169CC
:102F7000203000798200C54814308058081AC349AF
:102F8000086103200870084620300079401CC1B257
:102F9000BE4820300171B7E0BC482030017CC07BC6
:102FA000814267DAB9482030007C401CC1B2B74882
:102FB0002030017400BF0020B649086000BF00BF88
:102FC000FF200130086000BF00BF0220B2498860C6
:102FD00000BF00BF0420086100BFAC482030017C66
:102FE000C07B814201DAFFF77EFEA84820300079DD
:102FF0008100A64814304058A4498968884219D9EC
:10300000A249098988B2FFF765FDA0482030007900
:1030100081009E48143040589C498968411A9B4859
:10302000203000798200994814308150042097495B
:10303000087069E09549203109798A009349143173
:10304000895A88B2FFF746FD9048816820300079A0
:1030500082008E4814308058081A8C490861032079
:103060000870084620300079401CC1B287482030E3
:10307000017149E000BF00208749886000BF00BFA0
:10308000086100BF8149203109798A007F491431E4
:10309000895A88B207E087E0C6E079E061E04CE059
:1030A00033E08CE0C4E0FFF715FD7848203000796C
:1030B00003280BDA754820300079401CC1B27348F0
:1030C000203001710320714908701DE000216F4814
:1030D000203001712038408D401C0007000F6B49E3
:1030E0004885FFF70CFE002806D0012805D00228ED
:1030F00004D0032804D102E005E000BF00BF02E0D5
:10310000FFF7BAFA00BF00BF95E0FFF7E6FC002822
:1031100012D1FFF7F4FD002806D0012805D00228BF
:1031200004D0032804D102E005E000BF00BF02E0A4
:10313000FFF7A2FA00BF00BF7DE0FFF7BBFC04462B
:10314000FFF7C8FCFFF7C9FC002807D0FEF7FFFC1B
:10315000002805D107204D49087001E0FFF7CFFD99
:1031600069E0FFF7A7FC0446FFF7B4FCFFF7B5FCE6
:1031700000280AD0FEF7EBFC012808D147488088D8
:10318000424988850820087001E0FFF7B8FD52E049
:10319000FFF790FC0446FFF79DFCFFF79EFC00281C
:1031A00001D1FFF7ACFD46E038488088401E80B270
:1031B00036498880002801D1FFF7A1FD3BE07D2042
:1031C000C000FFF787FC3148808D002815D02F48BC
:1031D000808D401E2D4988850846808DC007C00F10
:1031E000002805D000BF012080022D4908601AE0A8
:1031F00000BF00202A49086015E000212348203044
:103200008171FFF77CFD002806D0012807D0022835
:1032100006D0032805D000BFFFF72EFA02E000BF5A
:1032200000BF00BF00BF06E000201849087000BFC3
:10323000FFF722FA00BF00BF10BD10B500BF00208D
:103240001749086000BF00BF01208002086000BF6E
:10325000FFF726FE0120FFF773F90120FFF75CF965
:1032600001201049086010BD10B58AB00446242220
:103270000D4901A8FCF782FF122C04D2600001A9BD
:10328000085A0249C8600AB010BD0000D80E0010EC
:1032900000000350000400500000015084000010A2
:1032A0000010015000800140705D000010B5D0207A
:1032B000FE49C86201220A211046FEF784F9D02097
:1032C000FA490862012208210020FEF77CF9D0208B
:1032D000F6494031C861012202210320FEF773F94B
:1032E000D020F2494039C861012202210020FEF7B6
:1032F0006AF9D020ED494039C8620122032100203B
:10330000FEF761F9D020E9494039C8630122042160
:103310000320FEF758F9D020E449886001220521F6
:103320000320FEF750F9D120E049C863012211467D
:103330001046FEF748F9D120DC49403108600122EF
:1033400002211046FEF73FF90121132000F0C0FAD8
:103350007D21C9000120FFF704F92F20D449C8605E
:10336000132000F0ADFA0120FFF7D6F800BF0020CF
:10337000D049086100BF00BFCF49886000BF00BFCF
:10338000086100BF00BF05210907086100BF00BF39
:10339000086200BF00BFC7494031086000BF00BFDE
:1033A000C4498031086000BFC44908854885087059
:1033B0000021C2482030817310BD10B50620FFF7F0
:1033C00053FF10BD10B50D20BC4908700021BB484B
:1033D00020308171C820B9498880B948B4498861D2
:1033E00000BF0420B349086100BF0120FFF7A8F81F
:1033F0000120FFF791F8132000F05BFA10BD70B5C3
:103400000220AE4908700021AC48203081710024B0
:1034100017E000BF01208002AA49086000BFAA4D42
:1034200000BF28466D1E0028FBD100BFA5490860DB
:1034300000BFA64D00BF28466D1E0028FBD1601CB2
:10344000C4B2032CE5DBA24800889949886100BF1B
:1034500008159C49086000BF0120FFF771F80120A2
:10346000FFF75AF8132000F024FA70BD70B59348A6
:103470002030807B002837D09048008D8F49498DBF
:10348000884231D0002417E000BF012080028D491E
:10349000086000BF8C4D00BF28466D1E0028FBD180
:1034A00000BF8849086000BF884D00BF28466D1ED8
:1034B0000028FBD1601CC4B2032CE5DB00BF012057
:1034C00080028049086000BF02207C49087000210A
:1034D0007A48203081710120FFF732F80120FFF790
:1034E0001BF8132000F0E5F970BDF8B504460E4650
:1034F00017467248008D401C05072D0F01E0FCF7B0
:1035000080FE6E48408DA842F9D0724800780128AC
:1035100003D100206F490870F8BD6849098D09077B
:10352000090F312251436C4A88183A46314600F05F
:103530004FFE6248008D31214843674940182030D2
:1035400004745E490D85FEF70CFB002805D05B482E
:103550000078002801D1FFF752FF00BFDCE710B56B
:103560000446302221460020FFF7BFFF10BD01B501
:10357000684600888004010C0091022269461046CA
:10358000FFF7B3FF08BD01B5684600884004010C91
:103590000091022269460120FFF7A7FF08BD4748B6
:1035A0000078002800D170470120FCE710B543489F
:1035B0000078002803D17D204001FFF7D8FF10BD1F
:1035C00010B53E480078002803D17D200001FFF7A8
:1035D000DAFF10BD00203949888570473748008DD3
:1035E0003649498D884201D0002070470120FCE710
:1035F00070B504460D462946204600F02CFC70BDEF
:103600002E480078002801D1012070470020FCE7F7
:1036100070B592B000F02CFC30A2402102A800F05E
:103620006FFC0546294602A8FFF7E2FF2CA24021C5
:1036300002A800F065FC0546294602A8FFF7D8FF5E
:103640000120002103462BA200910190402102A8F5
:1036500000F056FC0546294602A8FFF7C9FF2BA338
:103660002DA2402102A800F04BFC0546294602A8E5
:10367000FFF7BEFF2CA32FA2402102A800F040FCC0
:103680000546294602A8FFF7B3FF14A2402102A86D
:1036900000F036FC0546294602A8FFF7A9FF29A23B
:1036A000402102A800F02CFC054655E040400440B3
:1036B000008001400000035000000150D80E0010AF
:1036C0008813000000100150307500001027000022
:1036D000B85A000074000010601000100A000000CA
:1036E00053797374656D3A2050543438364D4232F4
:1036F0000A0000004669726D776172653A25642E92
:10370000253032642E25303264200A004F63742045
:1037100032392032303135004275696C6420646181
:1037200074653A2025730A0031343A31383A323917
:10373000000000004275696C642074696D653A2070
:1037400025730A005B5561727420436F6E6669676A
:103750007572655D0A000000294602A8FFF748FF60
:103760007749487AFCF752FE0646334675A2402157
:1037700002A800F0C5FB0546294602A8FFF738FF5E
:1037800074A2402102A800F0BBFB0546294602A80E
:10379000FFF72EFF77A2402102A800F0B1FB0546FB
:1037A000294602A8FFF724FF73A2402102A800F0D7
:1037B000A7FB0546294602A8FFF71AFF73A240217E
:1037C00002A800F09DFB0546294602A8FFF710FF5E
:1037D0007248C0790C280AD171A2402102A800F0D9
:1037E0008FFB0546294602A8FFF702FF09E071A2F8
:1037F000402102A800F084FB0546294602A8FFF7F5
:10380000F7FE5CA2402102A800F07AFB054629469B
:1038100002A8FFF7EDFE6CA2402102A800F070FBA9
:103820000546294602A8FFF7E3FE202403E0E0B2A4
:1038300000F005FB641C802CF9D368A2402102A88B
:1038400000F05EFB0546294602A8FFF7D1FE64A200
:10385000402102A800F054FB0546294602A8FFF7C4
:10386000C7FE64A2402102A800F04AFB0546294693
:1038700002A8FFF7BDFE12B070BD30B58DB030218B
:1038800001A800F004FD00250FE000240AE001205B
:10389000A0400246302101A8FCF71BFD01A8FFF75C
:1038A0005EFE641C082CF2D36D1C642DEDD30DB0AC
:1038B00030BDC206D20E01219140504A11607047BE
:1038C000C206D20E012191404C4A803211607047ED
:1038D00010B5002819DA4A4A03071B0F083B9B085A
:1038E0009B00D2588307DC0EFF23A3409A434B076B
:1038F0001B0E8407E40EA3401A43414B0407240F18
:10390000083CA408A4001A5118E03C4A03231B02F7
:10391000D21883089B00D2588307DC0EFF23A340F4
:103920009A434B071B0E8407E40EA3401A43334B04
:10393000032424021B198408A4001A5110BD00009E
:10394000840000106261756472617465203A2025FC
:103950006C640A00666C6F77206374726C203A2086
:10396000485720466C6F7720436F6E74726F6C0AF5
:10397000000000000A0000005B496E7374616C6C0B
:1039800020466F6E74735D0A0000000049442020D9
:10399000466F6E74204E616D650A0000A400001031
:1039A0002030202053595354454D20313278323441
:1039B0000A0000002031202053595354454D20382F
:1039C0007831360A000000005B41534349492053D7
:1039D000616D706C65735D0A000000000A0A0000EA
:1039E00053656C66746573742046696E69736865A7
:1039F000642E0A000A0A0A0A0A00000000E100E038
:103A00001CED00E0FE480188FE480088814206DB8C
:103A1000FC480088081AFC4A101A80B27047F9481E
:103A20000088401A401E80B2F8E7F8B500BFF7489A
:103A30008068C5B26D106D076D0F032D7BD1F34803
:103A40004069C6B29E203040002805D0F04806608C
:103A5000EE480068C7B2F8BDF007C00F002868D074
:103A6000EA480068C4B2EB480078002806D0012874
:103A70000CD0022824D0032841D12DE0102C04D1F1
:103A8000E4480078401CE34908703CE0042C04D072
:103A9000052C08D0102C0DD10BE0DE480078401C1E
:103AA000DC4908700AE0DB480078801CD9490870BE
:103AB00004E003E00020D749087000BF00BF22E007
:103AC000042C03D11220FCF77BFB00E000BF00BFF9
:103AD0000020D049087016E0012C02D0022C08D139
:103AE00000E007E0FEF73DF8002801D1FEF7DAFD1F
:103AF00000E000BF00BF0020C649087003E00020BE
:103B0000C449087000BF00BFC348BD490988445478
:103B1000BB480088401C4005400DB9490880FFF7AC
:103B200071FFFF2805DC00BF012205211046FDF7CB
:103B30003FFD86E0FFE7022D69D1B4480068C4B2BA
:103B4000B4480078002806D001280CD0022824D0E0
:103B5000032841D12DE0102C04D1AE480078401C40
:103B6000AC4908703CE0042C04D0052C08D0102C83
:103B70000DD10BE0A7480078401CA64908700AE068
:103B8000A4480078801CA349087004E003E00020EA
:103B9000A049087000BF00BF22E0042C03D112200E
:103BA000FCF70EFB00E000BF00BF00209949087041
:103BB00016E0012C02D0022C08D100E007E0FDF74E
:103BC000D0FF002801D1FEF76DFD00E000BF00BF6F
:103BD00000209049087003E000208E49087000BF63
:103BE00000BF8D4886490988445485480088401C98
:103BF0004005400D82490880FFF704FFFF2820DCC4
:103C000000BF012205211046FDF7D2FC19E0062D68
:103C100007D17F480068FF21013108437C490860D3
:103C20000FE0012D0DD179484069C6B22020304007
:103C3000002803D001207949087002E0002077496C
:103C4000087000BF07E7F8B5044601207349087003
:103C500000206C4908806A490880152001218140B4
:103C60006F4A116000BF6F48406AC008C0006D49CC
:103C700048620846406A012108436A49486208468A
:103C8000806AC008C00088620846806A0121084333
:103C900064498862002205210120FDF789FC614802
:103CA000006AC008C0005F4908620846006A102127
:103CB00008435C490862012205211046FDF783FC98
:103CC0005948006801210903084357490860012049
:103CD000886183204D49C8605348866931465348FE
:103CE000006800F0D6FA07092146384600F0D1FAFC
:103CF0000546280A45494860E8B208600320C860C4
:103D0000072088600846466900BF40484069602136
:103D100008406028F9D101E03C4806683B4840690A
:103D2000C007C00F0028F7D10021152000F0A6F829
:103D30001520012181403A4A803A116000BF0520D8
:103D400032494860F8BD0BE000BF304A5269202379
:103D50001A40002AF9D002782C4B1A60401C491EE8
:103D60000029F1D1704701B501216846FFF7EBFF4B
:103D70006846007808BD70B521E0FCF742FA20489B
:103D8000058820480088854219D023481D490988A4
:103D9000445C1C480088401C4005400D19490880BF
:103DA000FFF730FE01214902884206DD00BF0022F4
:103DB00005210120FDF7FCFB00BF204670BDDCE7BC
:103DC00010B504460E4800880E490988884234D050
:103DD00011480C490988405C20700A480088401C42
:103DE0004005400D07490880FFF70CFE01214902FC
:103DF000884220DD00BF00220521012018E00000DC
:103E0000780000107A000010FF07000000800040DA
:103E10007C00001081000010701300108000001062
:103E200080E100E0804004408080044038000010C1
:103E3000FDF7BEFB00BF012010BD0020FCE72B49B1
:103E40002B4A128888542A490988491C4905490D7A
:103E5000274A1180704730B503460C46002504E020
:103E600018785B1CFFF7EBFF6D1CA542F8D330BD43
:103E70000020204908801E490880704710B500289E
:103E800019DA1D4A03071B0F083B9B089B00D258F9
:103E90008307DC0EFF23A3409A434B071B0E8407C6
:103EA000E40EA3401A43144B0407240F083CA40853
:103EB000A4001A5118E0114A03231B02D2188308E8
:103EC0009B00D2588307DC0EFF23A3409A434B0785
:103ED0001B0E8407E40EA3401A43084B032424025C
:103EE0001B198408A4001A5110BD000070130010A3
:103EF000780000107A0000101CED00E000E100E006
:103F00000FB47CB50C0009AA009001D00019401E26
:103F1000094B7B4469460190089800F0C4FA002CD4
:103F2000054603D069460020FCF7DFF928467CBC33
:103F300008BC04B018470000B705000070B504467F
:103F400085690068C10601D5302600E02026C0073B
:103F500007D070BD62683046A1689047206A401C57
:103F600020626D1EF6D570BD70B504468569007877
:103F7000C00707D170BD6268A16820209047206A01
:103F8000401C20626D1EF6D570BD70B50C4605460E
:103F9000012A05D02878800600D5EA69002302E0CE
:103FA000012305E05B1C934202D2E05C0028F9D1BA
:103FB000A869E618C01AA861286AC01828622846AD
:103FC000FFF7BCFF04E06A682078A968641C90478A
:103FD000B442F8D32846FFF7C7FF70BDF7B50025F8
:103FE00075291068009914A611D0C046C046002853
:103FF00002DA404211A608E0009909688A0701D553
:104000000FA602E0490704D50EA6012501E0C0462F
:10401000C046009F0024243704E000F076FA3031D7
:104020003955641C0028F8D12B46324621460098A9
:1040300000F0DCF9FEBD0000000000002D000000D3
:104040002B00000020000000F3B50446002081B0E2
:1040500020622046E1688847002872D0252802D0D7
:104060006268A168ABE0594F00267F442046E168B2
:1040700088472028054608DB312D06D278192038DC
:104080000078002801D00643F0E7B00701D50420EE
:1040900086430020E0610746A0612A2D0AD0284609
:1040A00000F07AFA002827D0B8000019303D0090BF
:1040B000856119E00298BA00121902C89161029054
:1040C0002046E1688847012F054617D1E06900289E
:1040D0001FDA202086431CE000980A2180694843AB
:1040E00000994019303888612046E16888470546C4
:1040F00000F052FA0028EFD1012F0AD02E2D08D15E
:104100002046E16888470546202006437F1C022F91
:10411000C3DBA069002803DA4042A0610120064306
:10412000F00701D0102086436C2D0BD0682D09D0EC
:104130004C2D3CD06A2D38D0742D38D07A2D36D005
:1041400016E040E0E1682F4620468847B842054621
:1041500009D16C2F29D001208002E1680643204656
:104160008847054604E06C2F1DD0FF200130064330
:10417000002D28D028464138192803D80120C00234
:1041800006432035204626602946029A1646FBF74C
:10419000D5FF002810D001280BD0F61DF008C00074
:1041A0000830029055E74020E1E78020D5E7002065
:1041B000D3E7361D02964CE762682846A16890470F
:1041C000206A401C44E7206AFEBD0000261D000056
:1041D000F8B5042A2CD3830712D00B78491C03703E
:1041E000401C521E83070BD00B78491C0370401CE7
:1041F000521E830704D00B78491C0370401C521ECA
:104200008B079B0F05D0C91ADF002023DE1B08C9CE
:104210000AE0FBF7B3FFF8BD1D4608C9FD401C4688
:10422000B4402C4310C0121F042AF5D2F308C91A57
:10423000521EF0D40B78491C0370401C521EEAD465
:104240000B78491C0370401C012AE4D409780170E2
:10425000F8BD01E004C0091F0429FBD28B0701D57A
:104260000280801CC90700D00270704700290BD063
:10427000C30702D00270401C491E022904D38307E1
:1042800002D50280801C891EE3E70022EEE70022AF
:10429000DFE7002203098B422CD3030A8B4211D3A0
:1042A00000239C464EE003460B433CD400224308C7
:1042B0008B4231D303098B421CD3030A8B4201D3B7
:1042C00094463FE0C3098B4201D3CB01C01A52414F
:1042D00083098B4201D38B01C01A524143098B429F
:1042E00001D34B01C01A524103098B4201D30B0188
:1042F000C01A5241C3088B4201D3CB00C01A5241AD
:1043000083088B4201D38B00C01A524143088B4271
:1043100001D34B00C01A5241411A00D2014652410A
:10432000104670475DE0CA0F00D04942031000D329
:104330004042534000229C4603098B422DD3030A7E
:104340008B4212D3FC22890112BA030A8B420CD38E
:10435000890192118B4208D3890192118B4204D3B7
:1043600089013AD0921100E08909C3098B4201D337
:10437000CB01C01A524183098B4201D38B01C01A71
:10438000524143098B4201D34B01C01A52410309E8
:104390008B4201D30B01C01A5241C3088B4201D397
:1043A000CB00C01A524183088B4201D38B00C01A44
:1043B0005241D9D243088B4201D34B00C01A52411B
:1043C000411A00D20146634652415B10104601D3A8
:1043D0004042002B00D54942704763465B1000D332
:1043E000404201B50020C046C04602BDFFB50446AC
:1043F0000D4681B0243000902168880604D5102233
:10440000E0699143216000E00120A84201DD471BE3
:1044100000E000270498A1697A191018081AA06111
:104420002078C00602D42046FFF788FD002608E069
:1044300003986268A168805D9047206A401C761CE2
:10444000206204988642F3DB2078C0060AD5204615
:10445000FFF774FD06E06268A16830209047206A8B
:10446000401C206238467F1E0028F4DC07E00098DC
:104470006268A168405D9047206A401C206228461F
:104480006D1E0028F3DC2046FFF76EFD2078000645
:1044900002D5022005B0F0BD0120FBE701694A1CEE
:1044A00002610878704700B58FB002910021059134
:1044B0000549019379440391114604906846FFF73A
:1044C000C3FD0FB000BD0000E5FFFFFF4B680A68A9
:1044D0009A4202D2531C0B601070704710B54369AA
:1044E000002B02D0C046C04601E0FFF74EFD012080
:1044F00010BD1278014624310A7000224A70012250
:10450000ECE711680022D243E8E701468008081A68
:1045100002091018020A1018020C1018C0088200B4
:1045200012185200891A01E0401C0A390A29FBD2EC
:1045300070477546FBF7DEFEAE46050069465346FA
:10454000C008C000854618B020B5FBF7B1FE60BCBE
:1045500000274908B6460026C0C5C0C5C0C5C0C5AD
:10456000C0C5C0C5C0C5C0C5403D49008D467047E7
:104570000446C046C0462046FBF7FAFD30B47446F8
:10458000641E2578641CAB4204D3635D5B00E318B2
:1045900030BC18471D46F8E730380A2801D2012000
:1045A00070470020704700000000005000000150DC
:1045B0000000025000000350000000000000000056
:1045C00000000000000000000000000000000000EB
:1045D00000000000000000000000000000000000DB
:1045E00000000000000000387FFC387FFC3800002D
:1045F0003800000000000000000000000000000083
:10460000000000000000FC0000FC000000000000B2
:104610000000000000FC0000FC00000000000000A2
:104620000000000000C18000C1801FFFF81FFFF8DC
:104630000183000183003FFFF03FFFF0030600030A
:1046400006000000000000000783C00FE3E01C60CC
:10465000701830307FFFFE7FFFFE1830301C18705E
:104660000F1FE00707C00000000000001F00187FB8
:10467000C07860C1E07FCF801F3C0000F3E007CF2F
:10468000F81E0C18780FF86003E00000000000002E
:104690000007E00E1FF01FB83830E01830F818316E
:1046A0009E301F07E00E03E0001F78001C1800007A
:1046B00000000000000000000000000000020000F8
:1046C000E60000FC0000F800000000000000000010
:1046D000000000000000000000000000000001FFDA
:1046E000800FFFF03E007C70000EC00003800001D0
:1046F00000000000000000000000000000000000BA
:104700000000800001C0000370000E3E007C0FFF1F
:10471000F001FF8000000000000000000000000029
:10472000030600038E00018C0000D8001FFFC01F8D
:10473000FFC000D800018C00038E000306000000BB
:104740000000000000180000180000180000180009
:1047500007FFE007FFE00018000018000018000045
:104760001800000000000000000000000000000031
:104770000000000100007300007E00007C000000CB
:104780000000000000000000000000000018000011
:104790001800001800001800001800001800001889
:1047A00000001800001800001800000000000000C1
:1047B0000000000000000000000000000000780081
:1047C00000780000780000000000000000000000F9
:1047D0000000000000000300001F0000FC0007E0D4
:1047E000001F0000F80007E0003F0000F80000C0D4
:1047F000000000000000000007FF801FFFE03800FD
:1048000070600018600018600018600018380070B0
:104810001FFFE007FF800000000000000000000014
:1048200000001800001800003800007FFFF87FFF2C
:10483000F800000000000000000000000000000080
:104840000E00383E00787001F86003986007186029
:104850001E1860381870F0183FC0180F00180000BC
:10486000000000000E01C03E01F07000386000182A
:1048700060601860601860601870F0383FDFF00FFB
:104880000FC0000000000000000700001F00007BB8
:104890000001E3000783001E03007FFFF87FFFF89D
:1048A0000003000003000000000000000000C07FC3
:1048B000F0F07FF03860601860C01860C01860C009
:1048C0001860E038607FF0001FC0000000000000AA
:1048D0000FFFC03FFFF070603860C01860C0186004
:1048E000C01860C01870E0383C7FF00C1FC000009A
:1048F000000000006000006000006000006003F83D
:10490000603FF861FC0067C0007E00007800006036
:1049100000000000000000000F0FC03FBFF070F06B
:104920003860601860601860601860601870F03857
:104930003FBFF00F0FC00000000000000FC0C03FDD
:10494000F0F070383860181860181860181860187F
:10495000187030383FFFF00FFFC00000000000006B
:1049600000000000000000000000000001E07801ED
:10497000E07801E078000000000000000000000086
:104980000000000000000000000000000000000126
:1049900001E07301E07E01E07C0000000000000007
:1049A0000000000000000000001000003800006C53
:1049B0000000C6000183000301800600C00C0060F7
:1049C00008002000000000000000000000C30000FC
:1049D000C30000C30000C30000C30000C30000C345
:1049E0000000C30000C30000C3000000000000007E
:1049F0000000000800200C00600600C003018001D8
:104A0000830000C600006C000038000010000000A9
:104A1000000000000F00003F000070000060003840
:104A2000600E38603E3860703870E0003FC0000FA4
:104A3000000000000000000007FF801C00E030FEC6
:104A40003063FF1846018846018843FF0867FF98D6
:104A50003801900FFF000000000000000000F80087
:104A60001FF801FF000FE3007C03007C03000FE34D
:104A70000001FF00001FF80000F800000000000027
:104A80007FFFF87FFFF86060186060186060186052
:104A9000601870E0183FF0301F3FF0000FC00000BA
:104AA000000000000FFFC03FFFF0700038600018EA
:104AB0006000186000186000187000383E01F00EA9
:104AC00001C00000000000007FFFF87FFFF86000D9
:104AD000186000186000186000183000303800704E
:104AE0001FFFE007FF800000000000000000007FC3
:104AF000FFF87FFFF86030186030186030186030C1
:104B000018603018603018600018000000000000C5
:104B10000000007FFFF87FFFF86030006030006029
:104B20003000603000603000603000600000000045
:104B3000000000000FFFC03FFFF070003860001859
:104B40006000186018186018307018E03E1FF80EEA
:104B50001FF80000000000007FFFF87FFFF8003022
:104B60000000300000300000300000300000300055
:104B70007FFFF87FFFF800000000000000000060E9
:104B800000186000186000187FFFF87FFFF86000D1
:104B9000186000186000180000000000000000000D
:104BA0000003C00003F000003800001800001800E7
:104BB00000180000387FFFF07FFFC00000000000F9
:104BC000000000007FFFF87FFFF800180000700071
:104BD00001F800079E001E07807801E06000780061
:104BE00000180000000000000000007FFFF87FFFB9
:104BF000F800001800001800001800001800001845
:104C00000000180000180000000000007FFFF87F7F
:104C1000FFF80F800001F000003E00003E0001F0B0
:104C2000000F80007FFFF87FFFF800000000000009
:104C30000000007FFFF87FFFF81F000003E0000086
:104C4000FC00001F000003E07FFFF87FFFF800007A
:104C5000000000000FFFC03FFFF070003860001838
:104C60006000186000186000187000383FFFF00FF7
:104C7000FFC00000000000007FFFF87FFFF8601811
:104C8000006018006018006018006018007038009C
:104C90003FF0000FC0000000000000000FFFC03F09
:104CA000FFF07000386000186001986001D8600063
:104CB000707000383FFFFC0FFFCC000000000000C8
:104CC0007FFFF87FFFF860300060300060300060E8
:104CD0003C00603F007063E03FE0F80F8018000088
:104CE000000000000F01C03FC1F070C038606018C4
:104CF0006060186030186030187018383E1FF00E71
:104D000007C00000000000006000006000006000BC
:104D1000006000007FFFF87FFFF860000060000087
:104D20006000006000000000000000007FFFC07F06
:104D3000FFF0000038000018000018000018000004
:104D4000180000387FFFF07FFFC000000000000067
:104D50007800007FC00007FC00003F800001F800E1
:104D600001F8003F8007FC007FC0007800000000D1
:104D7000000000007FFE007FFFF80001F8001F80A8
:104D800007F00007F000001F800001F87FFFF87FA8
:104D9000FE000000000000006000387800F81F03EB
:104DA000C007CF0000F80000F80007CF001F03C0C5
:104DB0007800F86000380000000000007000007EFD
:104DC00000000FC00001F000003FF8003FF801F0C4
:104DD000000FC0007E000070000000000000000016
:104DE0000000386000F86007D8601F1860F8186786
:104DF000E0187F001878001860001800000000001C
:104E000000000000000000000000000000FFFFFFA5
:104E1000FFFFFFC00003C00003C00003C000030089
:104E20000000000000000000C00000F800003F008B
:104E30000007E00000F800001F000007E00000FC91
:104E400000001F000003000000000000000000C080
:104E50000003C00003C00003C00003FFFFFFFFFF0B
:104E6000FF00000000000000000000000000000043
:104E7000000000080000180000300000600000C0C2
:104E80000000600000300000180000080000000072
:104E90000000000000000300000300000300000306
:104EA00000000300000300000300000300000300F3
:104EB00000030000030000030000000000000000E9
:104EC00000C00000E00000700000300000000000A2
:104ED0000000000000000000000000000007E001EA
:104EE0008FF0038C38031818031818031818039848
:104EF0003001FFF800FFF80000180000000000007B
:104F0000FFFFF8FFFFF801803003001803001803CB
:104F1000001803001803803801FFF0007FC0000074
:104F200000000000007FC001FFF00380380300187C
:104F300003001803001803001803803801E0F00094
:104F4000E0E0000000000000007FC001FFF00380EF
:104F500038030018030018030018030018018030FC
:104F6000FFFFF8FFFFF8000000000000007FC00115
:104F7000FFF0038C38030C18030C18030C18030CF7
:104F800018038C3801FC70007C60000000000000F9
:104F90000300000300000300003FFFF87FFFF8E379
:104FA0000000C30000C30000C300000000000000B8
:104FB00000000000007F0C01FFCE0380E3030063CC
:104FC0000300630300630300630180C703FFFE0364
:104FD000FFF8000000000000FFFFF8FFFFF800C02E
:104FE00000018000030000030000030000038000B4
:104FF00001FFF800FFF800000000000000000000C2
:10500000000003000003000063000063FFF863FF7B
:10501000F800000000000000000000000000000098
:1050200000000000000303000303000363000763A4
:10503000FFFE63FFFC000000000000000000000015
:1050400000000000FFFFF8FFFFF8000E00001C004A
:10505000003E0000E78001C1C00380F0030038007B
:105060000018000000000000000000000000C00068
:1050700000C00000C00000FFFFF8FFFFF8000000C4
:1050800000000000000000000000000003FFF80323
:10509000FFF801800003000003FFF801FFF8018022
:1050A0000003000003FFF801FFF80000000000000B
:1050B00003FFF803FFF800C00001800003000003B5
:1050C000000003000003800001FFF800FFF800006B
:1050D00000000000007FC001FFF0038038030018CB
:1050E00003001803001803001803803801FFF000C4
:1050F0007FC000000000000003FFFF03FFFF0180EE
:105100006003003003003003003003003003807080
:1051100001FFE0007F80000000000000007F8001B0
:10512000FFE0038070030030030030030030030011
:105130003001806003FFFF03FFFF0000000000005C
:1051400000000000000003FFF803FFF800C00001AA
:1051500080000300000300000380000180000000C5
:105160000000000000F0E001F8F0031838030C180C
:10517000030C18030C18030C1803863801C7F00041
:1051800041E00000000000000300000300000300F5
:10519000007FFFF07FFFF8030018030018030018DA
:1051A00003001800000000000000000003FFE003FF
:1051B000FFF0000038000018000018000018000080
:1051C0003000006003FFF803FFF80000000000005B
:1051D00003800003F000007E00000FC00000F80014
:1051E00000F8000FC0007E0003F000038000000004
:1051F0000000000003FF8003FFF80000780003C0F8
:10520000007E00007E000003C000007803FFF8036A
:10521000FF8000000000000003001803807801E117
:10522000E0007B80001E00001E00007B8001E1E0AA
:1052300003807803001800000000000003800303CF
:10524000F003007E03000F8F0000FE0001F0000F4E
:1052500080007E0003F000038000000000000000DA
:105260000000380300780301D8030398030E1803E5
:105270001C1803701803E0180380180000000000D9
:1052800000000000000000001800001800003C00B2
:105290007FE7FEFFC3FFC00003C00003C0000300A0
:1052A00000000000000000000000000000000000FE
:1052B00000000000FFFFFFFFFFFF000000000000F4
:1052C000000000000000000000000000000000C01E
:1052D0000003C00003C00003FFC3FF7FE7FE003CE4
:1052E000000018000018000000000000000000008E
:1052F000200000600000C00000C00000C00000608E
:105300000000600000600000C0000080000000009D
:10531000000000000000000000000000000000008D
:10532000000000000000000000000000000000007D
:10533000000000000000000000000000000000006D
:1053400000000000000000000000000000001FCC72
:10535000000C0000000000000000080030006000A9
:105360000800300060000000022003FC1E20022024
:1053700003FC1E200220000000000E1811043FFF55
:1053800010840C78000000000F0010840F3800C05B
:10539000077818840078000000780F8410C4112466
:1053A0000E9800E400840008080068007000000007
:1053B000000000000000000000000000000007E006
:1053C00018182004400200000000400220041818B1
:1053D00007E00000000000000240024001800FF0E2
:1053E00001800240024000000080008000800FF831
:1053F00000800080008000000001000D000E000011
:10540000000000000000000000000080008000801C
:1054100000800080008000800000000C000C000074
:1054200000000000000000000000000600180060FE
:105430000180060018002000000007F00808100492
:105440001004080807F000000000080408041FFC0E
:10545000000400040000000000000E0C10141024D2
:10546000104411840E0C000000000C1810041104EC
:10547000110412880C700000000000E003200424D6
:1054800008241FFC0024000000001F981084110451
:105490001104108810700000000007F00888110443
:1054A000110418880070000000001C00100010FC9F
:1054B00013001C001000000000000E38114410847E
:1054C000108411440E38000000000700088C1044BE
:1054D0001044088807F00000000000000000030CE2
:1054E000030C0000000000000000000000010106A5
:1054F00000000000000000000000008001400220C9
:1055000004100808100400000220022002200220DB
:1055100002200220022000000000100408080410ED
:10552000022001400080000000000E001200100C5C
:10553000106C10800F00000003E00C1813E414241A
:1055400017C4082807D000000004003C03C41C4016
:10555000074000E4001C000410041FFC11041104A7
:1055600011040E880070000003E00C1810041004F1
:10557000100410081C10000010041FFC100410047C
:105580001004080807F0000010041FFC11041104A7
:1055900017C410040818000010041FFC11041100A7
:1055A00017C010000800000003E00C1810041004DD
:1055B00010441C780040000010041FFC1084008080
:1055C000008010841FFC10040000100410041FFC55
:1055D000100410040000000000030001100110017D
:1055E0001FFE10001000000010041FFC11040380B7
:1055F0001464181C1004000010041FFC10040004A4
:1056000000040004000C000010041FFC1F0000FC3C
:105610001F001FFC1004000010041FFC0C040300FA
:1056200000E010181FFC100007F008081004100418
:105630001004080807F0000010041FFC10841080FC
:10564000108010800F00000007F0081810241024AC
:10565000101C080A07F2000010041FFC11041100BE
:1056600011C011300E0C000400000E1C1104108437
:10567000108410441C3800001800100010041FFC97
:10568000100410001800000010001FF8100400049F
:10569000000410041FF8100010001E0011E0001C90
:1056A000007013801C0010001FC0103C00E01F00A1
:1056B00000E0103C1FC000001004180C163401C09C
:1056C00001C01634180C100410001C00130400FC58
:1056D00013041C00100000000804101C1064108447
:1056E00013041C04101800000000000000007FFEDE
:1056F0004002400240020000000030000C00038025
:105700000060001C00030000000040024002400254
:105710007FFE0000000000000000000020004000AC
:1057200040004000200000000001000100010001D5
:1057300000010001000100010000400040002000C5
:105740000000000000000000000000980124014457
:105750000144014400FC000410001FFC0088010407
:10576000010400880070000000000070008801043F
:10577000010401040088000000000070008801049A
:10578000010411081FFC0004000000F8014401445A
:105790000144014400C800000000010401040FFCA2
:1057A0001104110411001800000000D6012901297C
:1057B000012901C90106000010041FFC008401003A
:1057C0000100010400FC000400000104190419FC9C
:1057D00000040004000000000000000300010101BB
:1057E000190119FE0000000010041FFC00240040F5
:1057F00001B4010C010400000000100410041FFC9F
:105800000004000400000000010401FC0104010088
:1058100001FC0104010000FC010401FC0084010002
:105820000100010400FC0004000000F80104010470
:105830000104010400F80000010101FF00850104DA
:10584000010400880070000000000070008801045E
:105850000104010501FF00010104010401FC0084B1
:105860000104010001800000000000CC012401249B
:10587000012401240198000000000100010007F844
:105880000104010400000000010001F8000400040C
:105890000004010801FC0004010001800170000CFB
:1058A000001001600180010001F0010C003001C016
:1058B0000030010C01F0010000000104018C0074B3
:1058C0000170018C01040000010101810171000ED1
:1058D000001801600180010000000184010C013406
:1058E00001440184010C00000000000000000000E1
:1058F00001003EFC400240020000000000000000E9
:10590000FFFF0000000000000000400240023EFCDB
:105910000100000000000000000060008000800026
:1059200040004000200020000000000000000000B7
:105930000000000000000000000000000000000067
:105940000000000000000000000000000000000057
:1059500000000000008040C020A060E0109050D007
:1059600030B070F0088848C828A868E8189858D857
:1059700038B878F8048444C424A464E4149454D457
:1059800034B474F40C8C4CCC2CAC6CEC1C9C5CDCF7
:105990003CBC7CFC028242C222A262E2129252D23F
:1059A00032B272F20A8A4ACA2AAA6AEA1A9A5ADAF7
:1059B0003ABA7AFA068646C626A666E6169656D6F7
:1059C00036B676F60E8E4ECE2EAE6EEE1E9E5EDE97
:1059D0003EBE7EFE018141C121A161E1119151D103
:1059E00031B171F1098949C929A969E9199959D9C7
:1059F00039B979F9058545C525A565E5159555D5C7
:105A000035B575F50D8D4DCD2DAD6DED1D9D5DDD66
:105A10003DBD7DFD038343C323A363E3139353D3AE
:105A200033B373F30B8B4BCB2BAB6BEB1B9B5BDB66
:105A30003BBB7BFB078747C727A767E7179757D766
:105A400037B777F70F8F4FCF2FAF6FEF1F9F5FDF06
:105A50003FBF7FFF000000500000015000000250D7
:105A600000000350000000500000015000000250F0
:105A700000000350EE2056183412C00D820A200890
:105A80004A06D804C803F5025302D70177012C0156
:105A9000F200C4009F0083006C0059004A003E00E1
:105AA00034002C00250000000000005000000150D0
:105AB0000000025000000350CB15D410350AC40971
:105AC0007A09DF086008F30795074307FA06B90665
:105AD0007F064A061906EC05C5059F057C055C0591
